:020000040800F2
:10000000B804002049010008211A000893160008CE
:100010001D1A000857020008CB1D00080000000050
:10002000000000000000000000000000C91B0008E4
:100030005B02000800000000251A0008CB1B000826
:100040006301000863010008630100086301000800
:1000500063010008630100086301000863010008F0
:1000600063010008630100086301000863010008E0
:1000700063010008630100086301000863010008D0
:1000800063010008630100086301000863010008C0
:1000900063010008630100086301000863010008B0
:1000A00063010008630100086301000863010008A0
:1000B0006301000863010008630100086301000890
:1000C0006301000863010008630100086301000880
:1000D0006301000863010008630100086301000870
:1000E0006301000863010008630100086301000860
:1000F0006301000863010008630100086301000850
:10010000630100086301000863010008630100083F
:10011000630100086301000863010008630100082F
:10012000630100086301000863010008630100081F
:10013000DFF810D000F06EF800480047BD2200083C
:10014000AFF30080B8040020064880470648004707
:10015000FEE7FEE7FEE7FEE7FEE7FEE7FEE7FEE777
:10016000FEE7FEE7391C000831010008202A04DB05
:10017000203A21FA02F00021704721FA02F3D04020
:10018000C2F120029140084319467047D2B201E003
:1001900000F8012B491EFBD270470022F6E710B58C
:1001A00013460A4604461946FFF7F0FF204610BDE5
:1001B0002DE9F05F0546002092469B46884606469C
:1001C000814640241BE02846414647462246FFF729
:1001D000CDFF53465A46C01A914110D311461846D6
:1001E000224600F029F82D1A67EB01084F462246F7
:1001F0000120002100F020F817EB00094E41201EDD
:10020000A4F10104DFDC484631462A464346BDE8F6
:10021000F09F0000064C074D06E0E06840F0010347
:1002200094E8070098471034AC42F6D3FFF784FFF8
:10023000AC230008CC230008202A04DB203A00FA73
:1002400002F1002070479140C2F1200320FA03F32D
:1002500019439040704700BFFEE7704772B600BF79
:10026000FEE700002DE9F847024600239C467BE1AB
:100270004FF0010808FA03F4D1F8008008EA0400FE
:10028000A0427DD1DFF8F4A2D1F80480A8EB0A09DE
:10029000D0453AD014DCB8F1030F50D009DCB8F1E6
:1002A000000F31D0B8F1010F1CD0B8F1020F49D1C5
:1002B00020E0B8F1110F18D0B8F1120F42D11EE0B2
:1002C000B9F5881F25D006DCB9F5803F20D0B9F5F7
:1002D000801F37D11AE0B9F5001F18D0B9F5041FF7
:1002E00030D117E0D1F80CC02DE0D1F80C8008F126
:1002F000040C28E0D1F80C8008F1080C23E0D1F8B8
:100300000C8008F10C0C1EE000BF00BF00BF00BF56
:1003100000BF00BFD1F80880B8F1000F02D14FF044
:10032000040C0BE0D1F80880B8F1010F03D14FF0B5
:10033000080C146102E04FF0080C546103E04FF028
:10034000000C00E000BF00BFFF2801D8904601E08C
:1003500002F104084646FF2802D84FEA830803E06A
:10036000A3F108084FEA88084746D6F800804FF006
:100370000F0909FA07F928EA09080CFA07F900E059
:100380007AE048EA0908C6F80080D1F8048008F04D
:100390008058B8F1805F6FD100BFDFF8E481D8F8F2
:1003A000188048F00108DFF8D891C9F81880C846CD
:1003B000D8F8188008F00108CDF8008000BF00BF11
:1003C0004FEAB9384FEA930958F829504FEA837831
:1003D0004FEA18794FF00F0808FA09F825EA0805DE
:1003E000DFF8A081424502D14FF0000824E0DFF899
:1003F0009881424502D14FF001081DE0DFF88C8161
:10040000424502D14FF0020816E0DFF884814245F0
:1004100002D14FF003080FE0DFF87881424502D1A6
:100420004FF0040808E0DFF87081424502D14FF038
:10043000050801E04FF006084FEA83794FEA197981
:1004400008FA09F848EA0505DFF850814FEA9309F0
:1004500048F82950D1F8048008F48018B8F5801FB6
:100460000BD1DFF83C81D8F8008048EA0008DFF8BB
:100470003091C9F800800AE075E0DFF82481D8F8EF
:10048000008028EA0008DFF81891C9F80080D1F848
:10049000048008F40018B8F5001F0ED1DFF80081C1
:1004A00008F10408D8F8008048EA0008DFF8F09066
:1004B00009F10409C9F800800DE0DFF8E48008F1D3
:1004C0000408D8F8008028EA0008DFF8D49009F181
:1004D0000409C9F80080D1F8048008F40038B8F5A0
:1004E000003F0ED1DFF8B880A8F10408D8F80080EA
:1004F00048EA0008DFF8A890A9F10409C9F80080CB
:100500000DE0DFF89C80A8F10408D8F8008028EA04
:100510000008DFF88C90A9F10409C9F80080D1F82F
:10052000048008F48038B8F5803F0ED1DFF8708081
:10053000A8F10808D8F8008048EA0008DFF86090C1
:10054000A9F10809C9F800800DE0DFF85480A8F18E
:100550000808D8F8008028EA0008DFF84490A9F1DC
:100560000809C9F800805B1CD1F8008028FA03F85C
:10057000B8F1000F7FF47CAEBDE8F88700001110E1
:100580000010024000080140000C01400010014032
:100590000014014000180140001C01400800014007
:1005A000080401400AB1016101E00B0403617047D6
:1005B0000148006870470000000000200348006800
:1005C0000349097808440149086070470000002089
:1005D0000800002010B50848006840F010000649E7
:1005E0000860032000F098F80F2000F007F800F0F2
:1005F0002BF8002010BD00000020024070B504461A
:100600000E4800784FF47A71B1FBF0F00C4909689C
:10061000B1FBF0F5284600F04AFF08B1012070BD9B
:10062000102C07D200222146501E00F037F8054852
:10063000046001E00120F2E70020F0E7080000205C
:100640000C0000200400002008B500BF114880699C
:1006500040F001000F4988610846806900F0010000
:10066000009000BF00BF00BF0846C06940F0805046
:10067000C8610846C06900F08050009000BF00BF0C
:1006800000BF0549486820F0E06040F00070486015
:1006900000BF08BD00100240000001402DE9F05FDE
:1006A00080460D461646002701F0A2FB0746394654
:1006B0002A46334601F00700C0F1070ABAF1040FD9
:1006C00002D94FF0040A01E0C0F1070AD14600F157
:1006D000040ABAF1070F02D24FF0000A01E0A0F1BC
:1006E000030AD4464FF0010A0AFA09FAAAF1010AEC
:1006F0000AEA020A0AFA0CFA4FF0010B0BFA0CFB99
:10070000ABF1010B0BEA030B4AEA0B04214640460E
:1007100001F076FBBDE8F09F00BF00F00702064B3A
:1007200019684FF6FF031940044B0B4343EA0221BB
:10073000014B196000BF70470CED00E00000FA05A6
:1007400070B504460D460CB9012070BD5A480068CA
:1007500000F00700A8420ED25748006820F00700BA
:100760002843554908600846006800F00700A84281
:1007700001D00120E9E7207800F0020002281DD115
:10078000207800F00400042805D14C48406840F46B
:10079000E0604A494860207800F00800082805D148
:1007A0004648406840F460504449486043484068C7
:1007B00020F0F000A168084340494860207800F02C
:1007C000010078B36068012806D13C48006800F455
:1007D000003090B90120B8E76068022806D1374898
:1007E000006800F0007040B90120AEE733480068AF
:1007F00000F0020008B90120A7E73048406820F067
:100800000300616808432D494860FFF7D1FE0646A2
:1008100009E0FFF7CDFE801B41F28831884202D902
:10082000032092E707E02548406800F00C0061686B
:10083000B0EB810FEDD12048006800F00700A8421E
:100840000ED91D48006820F0070028431A490860A7
:100850000846006800F00700A84201D0012074E7B4
:10086000207800F00400042807D11448406820F4E0
:10087000E060E168084311494860207800F0080012
:10088000082808D10D48406820F46050216940EAEA
:10089000C1000A49486000F03FF808494968C1F3BF
:1008A0000311074A515CC8400649086006480068C1
:1008B000FFF7A4FE002048E700200240001002409D
:1008C000922300080C00002004000020014800686A
:1008D000704700000C00002000B5FFF7F7FF044947
:1008E0004968C1F30221034A515CC84000BD0000C1
:1008F00000100240A223000800B5FFF7E7FF0449FB
:100900004968C1F3C221034A515CC84000BD0000E0
:1009100000100240A223000870B50021002200242C
:1009200000230020134D696801F00C05F5B1042D7A
:1009300002D0082D19D101E00F4819E00F4DC1F385
:100940008346AB5D01F4803555B10A4D6D68C5F342
:1009500040450B4E725D084D5D43B5FBF2F402E07D
:10096000084D03FB05F4204602E000BF024800BF2B
:1009700000BF70BD0010024000127A008023000802
:100980009023000800093D00F8B504460CB9012089
:10099000F8BD207800F00100002878D0F8484068C1
:1009A00000F00C0004280CD0F548406800F00C0062
:1009B000082811D1F248406800F48030B0F5803F3B
:1009C0000AD1EF48006800F4003000285FD060686A
:1009D00000285CD10120DBE700BF6068B0F5803FF4
:1009E00006D1E748006840F48030E549086028E017
:1009F000606858B9E248006820F48030E049086037
:100A00000846006820F4802008601AE06068B0F5AD
:100A1000A02F0BD1DA48006840F48020D849086044
:100A20000846006840F4803008600AE0D448006856
:100A300020F48030D24908600846006820F4802005
:100A4000086000BF606888B1FFF7B2FD054606E0A8
:100A5000FFF7AEFD401B642801D9032098E7C84882
:100A6000006800F400300028F2D010E0FFF7A0FD8D
:100A7000054606E0FFF79CFD401B642801D90320D2
:100A800086E7BF48006800F400300028F2D12078E3
:100A900000F00200022857D1B948406800F00C006D
:100AA00050B1B748406800F00C00082818D1B4488D
:100AB000406800F4803098B9B148006800F0020046
:100AC00020B12069012801D0012061E7AC4800680D
:100AD00020F0F800616940EAC100A949086033E0EC
:100AE0002069E8B10120A7490860FFF761FD0546CC
:100AF00006E0FFF75DFD401B022801D9032047E710
:100B00009F48006800F002000028F2D09C4800686E
:100B100020F0F800616940EAC1009949086013E0DB
:100B2000002098490860FFF743FD054606E0FFF7FF
:100B30003FFD401B022801D9032029E790480068A7
:100B400000F002000028F2D1207800F00800082808
:100B50002DD1A069B8B101208B490860FFF728FDAD
:100B6000054606E0FFF724FD401B022801D90320BB
:100B70000EE78348406A00F002000028F2D001200E
:100B800000F052FF13E000207F490860FFF710FDDE
:100B9000054606E0FFF70CFD401B022801D90320A3
:100BA000F6E67748406A00F002000028F2D120788B
:100BB00000F00400042873D100277148C06900F0D8
:100BC000805070B900BF6E48C06940F080506C49D9
:100BD000C8610846C06900F08050009000BF00BFA7
:100BE00001276A48006800F48070B0B9674800685F
:100BF00040F4807065490860FFF7DAFC054606E0BE
:100C0000FFF7D6FC401B642801D90320C0E65F48EB
:100C1000006800F480700028F2D000BFE06801286E
:100C200006D15748006A40F001005549086227E0A4
:100C3000E06858B95248006A20F001005049086243
:100C40000846006A20F00400086219E0E068052800
:100C50000BD14B48006A40F004004949086208463D
:100C6000006A40F0010008620AE04548006A20F08E
:100C70000100434908620846006A20F00400086247
:100C800000BFE068A0B1FFF793FC054609E0FFF75D
:100C90008FFC401B41F28831884202D9032077E65D
:100CA00022E03748006A00F002000028EFD012E08E
:100CB000FFF77EFC054608E0FFF77AFC401B41F297
:100CC0008831884201D9032062E62D48006A00F08D
:100CD00002000028F0D1012F05D12948C06920F079
:100CE00080502749C86100BFE069C8B32448406804
:100CF00000F00C00082860D0E069022848D10020EC
:100D000020490866FFF754FC054606E0FFF750FC53
:100D1000401B022801D903203AE61948006800F078
:100D200000700028F2D1206AB0F5803F07D1144846
:100D3000406820F40030A168084311494860D4E9B4
:100D4000080108430E49496821F4741108430C490D
:100D5000486001200B490866FFF72AFC054607E0BA
:100D60003DE0FFF725FC401B022801D903200FE6D8
:100D70000348006800F000700028F2D02FE0000067
:100D800000100240000042428004424200700040D5
:100D9000002014490866FFF70BFC054606E0FFF744
:100DA00007FC401B022801D90320F1E50E4800682A
:100DB00000F000700028F2D111E0E069012800D1B4
:100DC000E6E50948466806F48031206A814204D18C
:100DD00006F47011606A814201D00120D8E500203C
:100DE000D6E50000000042420010024010B5044663
:100DF0000CB9012010BD606A38B96068B0F5827F17
:100E000000D105E00021E16102E000212161616182
:100E10000021A16294F8510028B9002084F8500004
:100E2000204600F043F8022084F851002068006852
:100E300020F0400021680860A08800F482702189B9
:100E400001F404410843A18901F400610843217CB5
:100E500001F002010843217D01F001010843218BCB
:100E600001F400710843217F01F03801084320217B
:100E7000095D01F080010843218D01F40051084310
:100E8000216808600421A06901EA104021684860D7
:100E90002068C06920F400602168C8610020606596
:100EA000012084F851000020A4E7000010B586B0AE
:100EB0000446002002900390049005901A4920688F
:100EC00088422FD100BF1948C06940F480401749BB
:100ED000C8610846C06900F48040019000BF00BFAF
:100EE00000BF0846806940F00800886108468069B4
:100EF00000F00800019000BF00BF4FF420400290B6
:100F0000022003900320059002A90948FFF7AAF9DF
:100F10004FF48040029000200390049002A90448FE
:100F2000FFF7A0F906B010BD0038004000100240E5
:100F3000000C01402DE9F8430446884616461D463C
:100F40004FF0000994F85100012802D04FF0020937
:100F5000A8E06068B0F5827F0DD1A06858B9042080
:100F600084F851003346424641462046009500F041
:100F70007EF9BDE8F88300BF94F85000012801D144
:100F80000220F6E7012084F8500000BFFFF710FBB5
:100F90000746B8F1000F00D016B94FF0010981E003
:100FA000042084F8510000206065C4F83880A687CA
:100FB000E6872063A086E08620646064A068B0F5C0
:100FC000004F0BD12068006820F0400021680860C5
:100FD0002068006820F4804021680860206800686C
:100FE00000F04000402805D02068006840F0400034
:100FF00021680860E06810BB1DE02068806800F090
:10100000010050B12068007BA16B0870A06B401CF0
:10101000A063E08F401EE0870DE0FFF7C9FAC01B18
:10102000A84201D3681C00B92DB94FF00309012073
:1010300084F8510036E0E08F0028DED121E01DE089
:101040002068806800F0010050B12068C068A16B82
:101050000880A06B801CA063E08F401EE0870DE03D
:10106000FFF7A6FAC01BA84201D3681C00B92DB92E
:101070004FF00309012084F8510013E0E08F0028AD
:10108000DED13A462946204600F0E2FC08B1202095
:101090006065606D10B14FF0010902E0012084F835
:1010A000510000BF00BF002084F8500000BF484638
:1010B0005FE72DE9F84F0446884616461D464FF077
:1010C000000A00BF94F85000012802D10220BDE8B8
:1010D000F88F012084F8500000BFFFF769FA074637
:1010E000B14694F85100012802D04FF0020AB7E04F
:1010F000B8F1000F00D016B94FF0010AB0E003209C
:1011000084F8510000206065C4F83080A686E68629
:10111000A063A087E08760642064A068B0F5004FFA
:101120000BD12068006820F040002168086020682A
:10113000006840F48040216808602068006800F082
:101140004000402805D02068006840F04000216839
:101150000860E068B0F5006F32D1606810B1B9F195
:10116000010F09D1206B00882168C860206B801CAA
:101170002063E08E401EE0861EE02068806800F05C
:10118000020002280AD1206B00882168C860206B09
:10119000801C2063E08E401EE0860DE0FFF708FA19
:1011A000C01BA84201D3681C00B92DB94FF0030A37
:1011B000012084F8510053E0E08E0028DDD131E0B9
:1011C000606810B1B9F1010F09D1206B0078216876
:1011D0000873206B401C2063E08E401EE0861EE0FA
:1011E0002068806800F0020002280AD1206B007895
:1011F00021680873206B401C2063E08E401EE0864F
:101200000DE0FFF7D5F9C01BA84201D3681C00B957
:101210002DB94FF0030A012084F8510020E0E08E40
:101220000028DDD13A462946204600F04DFC08B1A1
:1012300020206065A06850B900BF002000902068A1
:10124000C068009020688068009000BF00BF606D9B
:1012500010B14FF0010A02E0012084F8510000BFF4
:1012600000BF002084F8500000BF50462FE72DE952
:10127000FF5F0446884691461D460E9E012002905F
:101280000020019000BF94F85000012803D10220F3
:1012900004B0BDE8F09F012084F8500000BFFFF7C4
:1012A00087F9074694F851B060680390AA46BBF1ED
:1012B000010F0BD00398B0F5827F04D1A06810B95C
:1012C000BBF1040F02D002200190E9E0B8F1000F59
:1012D00003D0B9F1000F00D015B901200190DFE073
:1012E00094F85100042802D0052084F85100002011
:1012F0006065C4F83890E587A587C4F83080E58636
:10130000A586206460642068006800F040004028E2
:1013100005D02068006840F0400021680860E0685F
:10132000B0F5006F4DD1606810B1BAF1010F09D16D
:10133000206B00882168C860206B801C2063E08ED1
:10134000401EE08636E02068806800F00200022837
:1013500010D1E08E70B1029801280BD1206B00886B
:101360002168C860206B801C2063E08E401EE086F0
:10137000002002902068806800F0010068B1E08FD2
:1013800058B12068C068A16B0880A06B801CA06366
:10139000E08F401EE08701200290FFF709F9C01B93
:1013A000B04207D3701C28B103200190012084F8BB
:1013B000510075E0E08E0028C5D1E08F0028C2D131
:1013C0004DE0606810B1BAF1010F09D1206B0078CF
:1013D00021680873206B401C2063E08E401EE0866D
:1013E00037E02068806800F00200022810D1E08E0B
:1013F00070B1029801280BD1206B00782168087326
:10140000206B401C2063E08E401EE086002002908E
:101410002068806800F0010068B1E08F58B1206852
:10142000C068A16B0870A06B401CA063E08F401ED9
:10143000E08701200290FFF7BBF8C01BB04201D348
:10144000701C00B92EB903200190012084F85100CE
:1014500026E0E08E0028C4D1E08F0028C1D13A46B2
:101460003146204600F030FB20B1012001902020C1
:10147000606515E0A06850B900BF002000902068AA
:10148000C068009020688068009000BF00BF606D59
:1014900010B10120019002E0012084F8510000BF4A
:1014A00000BF002084F8500000BF0198F0E670B53E
:1014B00004462546681EB0F1807F01D301200FE06D
:1014C000681E4FF0E02148610F214FF0FF3000F01F
:1014D00097FC00204FF0E021886107200861002080
:1014E00070BD10B504460CB9012010BDA06900B153
:1014F00000E000BF94F8410028B9002084F84000C3
:10150000204600F029F8242084F841002068C068B3
:1015100020F400502168C860204600F08FFB20684E
:10152000006920F49040216808612068406920F03B
:101530002A00216848612068C06840F40050216892
:10154000C86000206064202084F8410084F84200D4
:101550000020606300BFC8E710B586B004460020D5
:1015600002900390049005901A49206888422ED179
:1015700000BF1948806940F48040174988610846D7
:10158000806900F48040019000BF00BF00BF0846A2
:10159000806940F0040088610846806900F004001A
:1015A000019000BF00BF4815029002200390032065
:1015B000059002A90948FEF755FE4FF4806002909D
:1015C00000200390049002A90448FEF74BFE06B0E9
:1015D00010BD00000038014000100240000801402A
:1015E0002DE9F84F04460E46174699464FF0000A7B
:1015F00094F8410020284AD106B117B90120BDE86E
:10160000F88F00206064212084F84100FEF7D0FFAD
:101610008246A784E784A068B0F5805F04D1206982
:1016200010B90025B04602E035464FF000081BE037
:101630005346002280212046CDF8009000F07CFB2C
:1016400008B10320DBE745B9B8F80000C0F3080093
:101650002168486008F1020803E0287821684860A2
:101660006D1CE08C401EE084E08C0028E0D15346E5
:10167000002240212046CDF8009000F05DFB08B12B
:101680000320BCE7202084F841000020B7E70220B7
:10169000B5E700BFFEE7000010B5012211030248C4
:1016A000FEF780FF10BD0000000C01402DE9FF4156
:1016B00082B00D461646DDE90C780220019046EA1C
:1016C0000510C0B2009000F0DBF800F00FF900F058
:1016D000CDF84FF47A73012201A91648FFF7E9FC0F
:1016E0004FF47A73012202A91248FFF7E2FC4FF48B
:1016F0007A73012269460F48FFF7DBFC4FF47A73D7
:10170000012205A90B48FFF7D4FC002408E0391991
:101710004FF47A7301220748FFF7CBFC601CC4B278
:101720004445F4DBFFF7B8FF00F0CEF806B0BDE8A3
:10173000F081000014000020FFB583B00C46154670
:10174000DDE90C670320029045EA0410C0B2019065
:1017500000F096F800F08AF84FF47A73012202A99B
:101760001148FFF7A6FC4FF47A73012203A90E4833
:10177000FFF79FFC4FF47A73012201A90A48FFF793
:1017800098FC4FF47A73012206A90748FFF791FCF1
:101790004FF47A733A4631460348FFF7CBFBFFF725
:1017A0007BFF07B0F0BD0000140000207CB50446AC
:1017B0000D469F2001900020009000F057F84FF454
:1017C0007A73012201A90D48FFF773FC4FF47A7375
:1017D000012221460948FFF7ADFB4FF47A7302223C
:1017E00069460648FFF7A6FBFFF756FF9DF8010084
:1017F0009DF8001040EA012028807CBD14000020E4
:1018000013B582B00C4620200190002000902007E4
:10181000000E8DF8000000F033F800F067F800F0DB
:1018200025F84FF47A73012201A90F48FFF741FC14
:101830004FF47A73012202A90B48FFF73AFC4FF4E8
:101840007A73012269460848FFF733FC4FF47A7334
:1018500001220DF101010448FFF72BFCFFF71CFFEB
:1018600000F032F81FBD00001400002010B5002267
:101870004FF480510148FEF795FE10BD000C014069
:101880001CB50020019005200090FFF7EFFF13E04A
:101890004FF47A73012269460A48FFF70AFC4FF4B5
:1018A0007A73012201A90748FFF744FB9DF8040061
:1018B00000F0010000B900E0EAE700BFFFF7ECFE2E
:1018C0001CBD00001400002008B504200090FFF7A4
:1018D000CDFF4FF47A73012269460348FFF7E9FB15
:1018E000FFF7DAFE08BD00001400002008B506204E
:1018F0000090FFF7BBFF4FF47A730122694603485B
:10190000FFF7D7FBFFF7C8FE08BD0000140000205A
:1019100000B585B00020019002900390049000BFB4
:101920001D48806940F010001B49886108468069A5
:1019300000F01000009000BF00BF00BF08468069A3
:1019400040F0080088610846806900F008000090B7
:1019500000BF00BF00BF0846806940F004008861F6
:101960000846806900F00400009000BF00BF01221B
:1019700089140A48FEF716FE4FF4805001900120AA
:101980000290002003900320049001A90348FEF771
:1019900069FC05B000BD000000100240000C0140D1
:1019A00010B50E480E4908604FF48270486000215F
:1019B0000B488160C160016141614FF40071816138
:1019C0000821C16100210162416281620A21C16274
:1019D000FFF70CFA08B1FEF741FC10BD00380040DB
:1019E0001400002010B50B480B4908604FF4E1309B
:1019F0004860002108488160C16001610C2141619B
:101A000000218161C161FFF76CFD08B1FEF726FC82
:101A100010BD0000003801406C00002000BFFEE750
:101A200000BFFEE77047000008B508490968C9080B
:101A30004FF47A72B1FBF2F14143009100BF00BF55
:101A400000994A1E00920029F9D108BD0C0000201F
:101A5000F8B504460E4615466068B0F5827F0DD194
:101A6000A068B0F5004F03D0A068B0F5806F05D135
:101A70002068006820F04000216808606068B0F5C8
:101A8000827F11D1A068B0F5806F0DD1334600225E
:101A900001212046009500F02BF898B1606D40F0D0
:101AA000200060650320F8BD3346002280212046D7
:101AB000009500F01DF828B1606D40F020006065D1
:101AC0000320F0E70020EEE7F8B504460D46164681
:101AD0002B46002280212046009600F009F828B10C
:101AE000606D40F0200060650320F8BD0020FCE739
:101AF0002DE9F84F04460D4690461E46DDF8289025
:101B0000FEF756FDA0EB0900371AFEF751FD82469D
:101B10002C480068C0F3CB307843009045E0701C3F
:101B2000002842D0FEF744FDA0EB0A00B84200D2E4
:101B3000A7BB2068406820F0E0002168486060682A
:101B4000B0F5827F0DD1A068B0F5004F03D0A0683A
:101B5000B0F5806F05D12068006820F04000216852
:101B60000860A06AB0F5005F0DD100BF2068006872
:101B700020F40050216808602068006840F400509C
:101B80002168086000BF012084F8510000BF0020D8
:101B900084F8500000BF0320BDE8F88FFFE70098ED
:101BA00000B900270098401E0090206880682840F7
:101BB000A84201D1012000E000204045AFD1002023
:101BC000EAE700000C000020704710B5FEF7F6FCB5
:101BD00010BD00B58FB0282105A8FEF7DEFA14214C
:101BE0006846FEF7DAFA012005900004069000200E
:101BF00007900120099002200C90C1030D914FF431
:101C0000E0110E9105A8FEF7BFFE08B1FEF726FB16
:101C10000F20009002200190002002904FF480607D
:101C200003900020049002216846FEF789FD08B168
:101C3000FEF714FB0FB000BD7047000070B50446FE
:101C40002168096921F44051E26811432268116159
:101C50002269A1681143626941EA02052168C968E5
:101C600041F20C62914329432268D160216849699D
:101C700021F44071A2691143226851612D4A216803
:101C8000914202D1FEF738FE01E0FEF725FE00EB9F
:101C9000C00101EB001162689200B1FBF2F100EBB0
:101CA000C00202EB001263689B00B2FBF3F26423F4
:101CB000B2FBF3F202EBC20303EB0212A1EB8201CF
:101CC000322202EB01116422B1FBF2F101F0F001CA
:101CD00000EBC00202EB001263689B00B2FBF3F260
:101CE0006423B2FBF3F201EB021200EBC00101EB43
:101CF000001163689B00B1FBF3F100EBC00303EB41
:101D000000136668B600B3FBF6F36426B3FBF6F384
:101D100003EBC30606EB0313A1EB8301322303EBB2
:101D200001116423B1FBF3F101F00F0111442268AA
:101D3000916070BD003801402DE9F04104460D4628
:101D400017469846069E34E0701C88B32EB1FEF705
:101D50002FFCA0EB0800B0422BD900BF00BF2168C8
:101D60000C3151E8001F21F4D07021680C3141E89A
:101D70000002002AF3D100BF00BF00BF2168143168
:101D800051E8001F21F001002168143141E80002F0
:101D9000002AF3D100BF202084F8410084F84200DB
:101DA00000BF002084F8400000BF0320BDE8F081A0
:101DB000FFE7206800682840A84201D1012000E028
:101DC0000020B842C0D00020F0E700BFFEE70000CE
:101DD0000FB4054B10B503A9044A029800F034F87B
:101DE00010BC5DF814FB0000A122000810000020C8
:101DF00002480068C0F30220704700000CED00E0CC
:101E000010B5002804DB0A07130E054A135406E038
:101E10000A07140E034A00F00F031B1FD45410BD11
:101E200000E400E018ED00E002E008C8121F08C15D
:101E3000002AFAD170477047002001E001C1121F4B
:101E4000002AFBD1704700002DE9FF4F8DB00F46EF
:101E50000546002606E025280BD0DDE90F12904745
:101E60006D1C761C28780028F5D111B03046BDE8ED
:101E7000F08F0024A246A1460122E94900E0044374
:101E800015F8013F203B02FA03F00842F7D1287809
:101E90002A2810D06FF02F022878A0F130010929EC
:101EA00014D80AEB8A0102EB410144F0020400EB72
:101EB000010A6D1CF0E701CF5FEA000A03D544F484
:101EC0000054CAF1000A44F002046D1C28782E2840
:101ED00017D115F8010F44F004042A280ED06FF032
:101EE0002F022878A0F1300109290AD809EB8901CD
:101EF00002EB410100EB01096D1CF2E757F8049B6E
:101F00006D1C28786C280FD006DC4C2817D0682868
:101F10000DD06A2814D104E0742810D07A280FD18B
:101F20000DE044F400140AE044F4801401E044F4A9
:101F300040146978814202D104F580146D1C6D1C37
:101F400028786E281ED00CDC632830D004DC0028F2
:101F50008BD0582811D19FE0642867D069280CD114
:101F600064E073282DD004DC6F2872D0702804D16F
:101F700094E075286ED078286DD0DDE90F12904777
:101F8000761C4BE1C4F30250022806D0032809D086
:101F9000042801CF09D0066040E101CFF117C0E964
:101FA00000613BE101CF068038E1067036E117F8A9
:101FB000040B8DF8000000208DF80100EB46012095
:101FC00003E057F804BB4FF0FF3061074FF000010A
:101FD00002D40DE008F10101884649450FDA804539
:101FE000F8DB1BF808100029F4D108E008F1010122
:101FF00088468142FADB1BF808100029F6D1DDE99A
:102000000F23AAEB08008146214600F031F9304445
:1020100000EB080604E0DDE90F121BF8010B904706
:10202000B8F10108F7D221464846F2E00A21C4F38C
:1020300002524FF0000B0891022A04D001CFC117C1
:10204000032A09D00AE0FF1D27F00707F7E802017D
:1020500008E02CE01EE01FE000B2C117042A01D105
:1020600040B2C117021E71F1000206DA0023D0EB64
:10207000030063EB01012D2202E0220504D52B228F
:102080008DF82420012203E0E20701D02022F7E7A7
:10209000904653E00A210BE0102109E010214FF097
:1020A000000B44F004044FF00809089103E00821F4
:1020B0004FF0000B0891C4F30252022A04D001CF62
:1020C0000021032A06D006E0FF1D27F00707F7E8E6
:1020D000020103E080B2042A00D1C0B24FF0000830
:1020E00022072BD52A78702A07D0DDF820C08CF083
:1020F000100C5CEA0B0C05D00EE040228DF8242079
:10210000012208E050EA010306D030238DF8243084
:102110008DF8252002229046089B83F0080353EA9D
:102120000B030BD150EA010201D1620706D5302220
:102130008DF824204FF00108A9F101092A78582AC6
:1021400004D038A20B9208AA0A920BE03AA2F9E74F
:102150005B46089AFEF72CF80B9B9B5C0A9A521E72
:102160000A92137050EA0102F2D10A98ADEB000016
:1021700000F1200B600702D524F4803401E04FF019
:102180000109D94502DDA9EB0B0000E0002000EBBE
:102190000B0141440890AAEB010AE00306D4DDE9F3
:1021A0000F232146504600F063F806444FF0000923
:1021B00008E009A911F80900DDE90F12904709F1BB
:1021C0000109761CC145F4DBE0030CD5DDE90F23E2
:1021D0002146504600F04CF8064404E0DDE90F12B9
:1021E00030209047761C0899481E08900029F5DC9D
:1021F00008E00A980A990078491C0A91DDE90F1253
:102200009047761CBBF10001ABF1010BF1DC2146DC
:102210005046DDE90F2300F019F806446D1C21E655
:1022200009280100303132333435363738396162AC
:102230006364656600000000303132333435363770
:102240003839414243444546000000002DE9F04141
:10225000044600251E461746880404D405E0394686
:102260002020B0476D1C641EF9D52846BDE8F081DA
:102270002DE9F041044600251E469046C80301D5CD
:10228000302700E02027880404D505E04146384681
:10229000B0476D1C641EF9D52846BDE8F0810000EA
:1022A00013B50C464FF47A73012269460248FFF7D2
:1022B00097F900981CBD00006C00002088B0FEF764
:1022C00089F9FFF786FCFFF723FBFFF769FBFFF7B0
:1022D00089FB06A907A8FFF769FABDF818209DF841
:1022E0001C101AA0FFF774FD0020029003900490C8
:1022F000059015201BA105230422CDE90010032120
:102300000220FFF7D3F9152002A905230422CDE905
:10231000001003210220FFF70FFA02A917A0FFF710
:1023200057FD03210220FFF76BFA152002A90523B0
:102330000422CDE9001003210220FFF7FDF902A9D4
:102340000EA0FFF745FD00BFFEE700006D69643A8F
:1023500020253032582C206469643A2025303458C6
:102360000A00000054686973206973206D79206643
:1023700069727374207465737400000025730A0019
:1023800002030405060708090A0B0C0D0E0F1010B6
:102390000102000000000000000001020304060723
:1023A000080900000000010203040000CC2300081B
:1023B0000000002014000000281E0008E023000890
:1023C00014000020A4040000381E000800000000D3
:1023D00010000000010000000024F40000000000D4
:0400000508000131BD
:00000001FF
