:020000040800F2
:10000000D80C00204901000861200008A71C000846
:100010005D200008150500080B2400080000000002
:10002000000000000000000000000000092200089D
:100030001905000800000000652000080B220008D8
:100040006301000863010008630100086301000800
:1000500063010008630100086301000863010008F0
:1000600063010008630100086301000863010008E0
:1000700063010008630100086301000863010008D0
:1000800063010008630100086301000863010008C0
:1000900063010008630100086301000863010008B0
:1000A00063010008630100086301000863010008A0
:1000B0006301000863010008630100086301000890
:1000C0006301000863010008630100086301000880
:1000D0006301000863010008630100086301000870
:1000E0006301000863010008630100086301000860
:1000F0006301000863010008630100086301000850
:10010000630100086301000863010008630100083F
:10011000630100086301000863010008630100082F
:10012000630100086301000863010008630100081F
:10013000DFF810D000F052F800480047F925000819
:10014000AFF30080D80C00200648804706480047DF
:10015000FEE7FEE7FEE7FEE7FEE7FEE7FEE7FEE777
:10016000FEE7FEE77922000831010008202A04DBBF
:10017000203A21FA02F00021704721FA02F3D04020
:10018000C2F120029140084319467047D2B201E003
:1001900000F8012B491EFBD270470022F6E710B58C
:1001A00013460A4604461946FFF7F0FF204610BDE5
:1001B00030B50B46014600202022012409E021FA37
:1001C00002F59D4205D303FA02F5491B04FA02F534
:1001D0002844151EA2F10102F1DC30BD064C074D8A
:1001E00006E0E06840F0010394E807009847103407
:1001F000AC42F6D3FFF7A0FFCC260008EC2600089F
:100200000EB500200290022002A900231A46CDE973
:1002100000101946184601F099FD9DF808004F2876
:1002200007D19DF809004B2803D10120034908702C
:1002300002E00220014908700EBD000010000020FD
:1002400030B589B0002008900024022008A90123BD
:100250000022CDE900101946104601F077FD9DF807
:1002600020009DF8211000EB012084B200F0EAFA92
:100270000020049005900690079004900A4806908C
:10028000012000EBD42007900020039003A904A8CC
:1002900000F01EFA05462A4604A0079902F0B8F8B5
:1002A00000F06EFA09B030BD00800008457261733D
:1002B00065496E69745374727563742E4E62506131
:1002C0006765733D2564207265733D25640A0000EF
:1002D0002DE9F041044625686668280C0004B0F159
:1002E000005F04D017A002F093F8BDE8F0811A482F
:1002F000864202D31948864203D919A002F088F831
:10030000F3E700F0BFF972B600204FF0E02108617A
:100310004861886100BF08E04FF0FF32164941F89C
:100320002020164941F82020401C0828F4DB00BF9B
:1003300085F3088800BF124804603746B84700BFFD
:10034000D3E70000737461636B206164647220659D
:1003500072726F720A000000008000080000080836
:1003600072657365742068616E646C657220657275
:10037000726F720A0000000080E100E080E200E09D
:1003800008ED00E00EB50F480078012818D1FFF7FE
:1003900057FF00F023F80CA00068029000210846E7
:1003A00001F04EFD022002A900231A46CDE90010FB
:1003B0001946184601F084FC04A002F029F800BF99
:1003C0000EBD000010000020AC9800007570646144
:1003D000746520737563636573730A002DE9FC41CE
:1003E0004FF000080220484901230022CDE9001007
:1003F0001946104601F0AAFC434800784249497862
:1004000000EB01201FFA80F844460026002500F08A
:1004100019FA22E006F540504FF400623A4901F023
:10042000CFFC002710E03848C15D0246781C105C04
:1004300041EA002535483044C1192A4600230120ED
:1004400000F0A8F9B81C87B2B7F5006FEBD3A4F59C
:10045000006084B2A8EB040086B2B4F5006FD9D274
:10046000002C45DD06F540502246274901F0A8FC46
:10047000204604EBD0714910A4EB4101A9B9002733
:1004800010E02148C15D0246781C105C41EA00255D
:100490001E483044C1192A460023012000F07AF991
:1004A000B81C87B2A742ECDB22E0002710E0164818
:1004B000C15D0246781C105C41EA002513483044B7
:1004C000C1192A460023012000F064F9B81C87B244
:1004D000601EB842EBDC0C49085C40F47F450B48D9
:1004E00030442044411E2A460023012000F052F9E6
:1004F0000024464600F044F923463246414604486B
:1005000001F086FFBDE8FC81D800002000800008D3
:100510008826000800BFFEE7704772B600BFFEE7FE
:100520000021074AD1610749096941F00401054AE0
:1005300011611146096941F04001116170470000E5
:10054000B8000020002002400021074AD16107497D
:10055000096941F00201054A1161114648610969C2
:1005600041F0400111617047B800002000200240B6
:100570000022054BDA61054A126942F00102034B81
:100580001A61018070470000B8000020002002407E
:1005900000201E49C96801F0100139B11C49C96920
:1005A00041F002011A4AD16140F010001749C968B0
:1005B00001F0040139B11649C96941F00101144A39
:1005C000D16140F004001149C96901F0010169B12C
:1005D0000F49C96941F004010D4AD16100BF0B49BF
:1005E000C96921F00101094AD16100BF00BF40F291
:1005F0000111884206D10549C96921F00101034A68
:10060000D16101E00149C86000BF7047002002408D
:10061000B800002070B5044600F0D2FA054609E0A3
:10062000601C38B124B100F0CBFA401BA04201D9C4
:10063000032070BD1248C06800F001000028EFD10F
:100640000F48C06800F0200020B100BF20200C49F6
:10065000C86000BF0A48C06800F0100048B90848E8
:10066000C06900F0010020B90548C06800F004002E
:1006700018B1FFF78DFF0120DBE70020D9E700006C
:100680000020024010B54FF0FF30064908610020FD
:100690000861401EC8600020C86000F0DDFA00203C
:1006A00010BD00000010024070B5044600F088FA4A
:1006B00006462546681C10B104480078054400BF72
:1006C00000F07EFA801BA842FAD370BD080000201B
:1006D0002DE9F04104460E460127002500BF2648BB
:1006E000007E012802D10220BDE8F08101202249CC
:1006F000087600BF2068022813D14CF25030FFF773
:1007000089FF90BB0120FFF70BFF4CF25030FFF741
:1007100081FF07461948006920F004001749086165
:1007200023E04CF25030FFF775FFF0B94FF0FF3087
:100730003060A56812E02846FFF706FF4CF2503003
:10074000FFF768FF07460D48006920F002000B49DB
:1007500008610FB1356007E005F50065D4E90210C6
:1007600001EBC020A842E6D800BF00BF002002492C
:10077000087600BF3846B7E7B800002000200240E6
:100780000348006940F0800001490861002070477B
:10079000002002402DE9FE4F05468B46174698463D
:1007A000012600240020029000BF2448007E01287A
:1007B00002D10220BDE8FE8F01202049087600BF4B
:1007C0004CF25030FFF726FF064686BB012D02D1C2
:1007D0000120029006E0022D02D10220029001E0E9
:1007E0000420029000241EE02201B946C246484679
:1007F0005146FFF7BBFC80B20190022000FB04B021
:1008000000900199FFF7B4FE4CF25030FFF702FF61
:1008100006460B48006920F001000949086106B14D
:1008200004E0601CC4B202988442DDDB00BF00BF5C
:1008300000200249087600BF3046BBE7B800002020
:100840000020024000200849096901F0800151B1EF
:100850000649054A5160064951601146096901F08F
:10086000800101B10120704700200240230167454B
:10087000AB89EFCD2DE9F847024600239C467BE18A
:100880004FF0010808FA03F4D1F8008008EA0400E8
:10089000A0427DD1DFF8F4A2D1F80480A8EB0A09C8
:1008A000D0453AD014DCB8F1030F50D009DCB8F1D0
:1008B000000F31D0B8F1010F1CD0B8F1020F49D1AF
:1008C00020E0B8F1110F18D0B8F1120F42D11EE09C
:1008D000B9F5881F25D006DCB9F5803F20D0B9F5E1
:1008E000801F37D11AE0B9F5001F18D0B9F5041FE1
:1008F00030D117E0D1F80CC02DE0D1F80C8008F110
:10090000040C28E0D1F80C8008F1080C23E0D1F8A1
:100910000C8008F10C0C1EE000BF00BF00BF00BF40
:1009200000BF00BFD1F80880B8F1000F02D14FF02E
:10093000040C0BE0D1F80880B8F1010F03D14FF09F
:10094000080C146102E04FF0080C546103E04FF012
:10095000000C00E000BF00BFFF2801D8904601E076
:1009600002F104084646FF2802D84FEA830803E054
:10097000A3F108084FEA88084746D6F800804FF0F0
:100980000F0909FA07F928EA09080CFA07F900E043
:100990007AE048EA0908C6F80080D1F8048008F037
:1009A0008058B8F1805F6FD100BFDFF8E481D8F8DC
:1009B000188048F00108DFF8D891C9F81880C846B7
:1009C000D8F8188008F00108CDF8008000BF00BFFB
:1009D0004FEAB9384FEA930958F829504FEA83781B
:1009E0004FEA18794FF00F0808FA09F825EA0805C8
:1009F000DFF8A081424502D14FF0000824E0DFF883
:100A00009881424502D14FF001081DE0DFF88C814A
:100A1000424502D14FF0020816E0DFF884814245DA
:100A200002D14FF003080FE0DFF87881424502D190
:100A30004FF0040808E0DFF87081424502D14FF022
:100A4000050801E04FF006084FEA83794FEA19796B
:100A500008FA09F848EA0505DFF850814FEA9309DA
:100A600048F82950D1F8048008F48018B8F5801FA0
:100A70000BD1DFF83C81D8F8008048EA0008DFF8A5
:100A80003091C9F800800AE075E0DFF82481D8F8D9
:100A9000008028EA0008DFF81891C9F80080D1F832
:100AA000048008F40018B8F5001F0ED1DFF80081AB
:100AB00008F10408D8F8008048EA0008DFF8F09050
:100AC00009F10409C9F800800DE0DFF8E48008F1BD
:100AD0000408D8F8008028EA0008DFF8D49009F16B
:100AE0000409C9F80080D1F8048008F40038B8F58A
:100AF000003F0ED1DFF8B880A8F10408D8F80080D4
:100B000048EA0008DFF8A890A9F10409C9F80080B4
:100B10000DE0DFF89C80A8F10408D8F8008028EAEE
:100B20000008DFF88C90A9F10409C9F80080D1F819
:100B3000048008F48038B8F5803F0ED1DFF870806B
:100B4000A8F10808D8F8008048EA0008DFF86090AB
:100B5000A9F10809C9F800800DE0DFF85480A8F178
:100B60000808D8F8008028EA0008DFF84490A9F1C6
:100B70000809C9F800805B1CD1F8008028FA03F846
:100B8000B8F1000F7FF47CAEBDE8F88700001110CB
:100B90000010024000080140000C0140001001401C
:100BA0000014014000180140001C014008000140F1
:100BB000080401400AB1016101E00B0403617047C0
:100BC00001480068704700000000002003480068EA
:100BD0000349097808440149086070470000002073
:100BE0000800002010B50848006840F010000649D1
:100BF0000860032000F09AF8002000F007F800F0E9
:100C00002DF8002010BD00000020024070B5044601
:100C10000E4800784FF47A71B1FBF0F00C49096886
:100C2000B1FBF0F5284600F04CFF08B1012070BD83
:100C3000102C07D200222146501E00F039F805483A
:100C4000046001E00120F2E70020F0E70800002046
:100C50000C000020040000207047000008B500BF11
:100C60001148806940F001000F4988610846806999
:100C700000F00100009000BF00BF00BF0846C0693F
:100C800040F08050C8610846C06900F08050009074
:100C900000BF00BF00BF0549486820F0E06040F099
:100CA0000070486000BF08BD001002400000014015
:100CB0002DE9F05F80460D461646002701F0B8FB8F
:100CC000074639462A46334601F00700C0F1070AB5
:100CD000BAF1040F02D94FF0040A01E0C0F1070A8B
:100CE000D14600F1040ABAF1070F02D24FF0000A10
:100CF00001E0A0F1030AD4464FF0010A0AFA09FA0A
:100D0000AAF1010A0AEA020A0AFA0CFA4FF0010BE8
:100D10000BFA0CFBABF1010B0BEA030B4AEA0B04D9
:100D20002146404601F08CFBBDE8F09F00BF00F07B
:100D30000702064B19684FF6FF031940044B0B439B
:100D400043EA0221014B196000BF70470CED00E03F
:100D50000000FA0570B504460D460CB9012070BDBF
:100D60005A48006800F00700A8420ED257480068B1
:100D700020F007002843554908600846006800F045
:100D80000700A84201D00120E9E7207800F0020026
:100D900002281DD1207800F00400042805D14C4819
:100DA000406840F4E0604A494860207800F008005C
:100DB000082805D14648406840F4605044494860DE
:100DC0004348406820F0F000A1680843404948606B
:100DD000207800F0010078B36068012806D13C4813
:100DE000006800F4003090B90120B8E7606802287C
:100DF00006D13748006800F0007040B90120AEE726
:100E00003348006800F0020008B90120A7E7304825
:100E1000406820F00300616808432D494860FFF7EF
:100E2000CFFE064609E0FFF7CBFE801B41F288317A
:100E3000884202D9032092E707E02548406800F085
:100E40000C006168B0EB810FEDD12048006800F024
:100E50000700A8420ED91D48006820F0070028436B
:100E60001A4908600846006800F00700A84201D04F
:100E7000012074E7207800F00400042807D114480A
:100E8000406820F4E060E168084311494860207838
:100E900000F00800082808D10D48406820F4605090
:100EA000216940EAC1000A49486000F03FF808495A
:100EB0004968C1F30311074A515CC84006490860FC
:100EC00006480068FFF7A2FE002048E70020024025
:100ED000001002406E2600080C00002004000020D4
:100EE00001480068704700000C00002000B5FFF7C3
:100EF000F7FF04494968C1F30221034A515CC84025
:100F000000BD0000001002407E26000800B5FFF77B
:100F1000E7FF04494968C1F3C221034A515CC84054
:100F200000BD0000001002407E26000870B50021C0
:100F30000022002400230020134D696801F00C05F5
:100F4000F5B1042D02D0082D19D101E00F4819E0A8
:100F50000F4DC1F38346AB5D01F4803555B10A4DA9
:100F60006D68C5F340450B4E725D084D5D43B5FBA2
:100F7000F2F402E0084D03FB05F4204602E000BF56
:100F8000024800BF00BF70BD0010024000127A008E
:100F90005C2600086C26000800093D00F8B50446F0
:100FA0000CB90120F8BD207800F00100002878D0AD
:100FB000F848406800F00C0004280CD0F548406860
:100FC00000F00C00082811D1F248406800F480308D
:100FD000B0F5803F0AD1EF48006800F400300028E7
:100FE0005FD0606800285CD10120DBE700BF60684B
:100FF000B0F5803F06D1E748006840F48030E5490D
:10100000086028E0606858B9E248006820F4803041
:10101000E04908600846006820F4802008601AE073
:101020006068B0F5A02F0BD1DA48006840F480204A
:10103000D84908600846006840F4803008600AE03B
:10104000D448006820F48030D2490860084600681F
:1010500020F48020086000BF606888B1FFF7B0FD11
:10106000054606E0FFF7ACFD401B642801D90320CC
:1010700098E7C848006800F400300028F2D010E07B
:10108000FFF79EFD054606E0FFF79AFD401B64282A
:1010900001D9032086E7BF48006800F4003000282B
:1010A000F2D1207800F00200022857D1B9484068F8
:1010B00000F00C0050B1B748406800F00C00082860
:1010C00018D1B448406800F4803098B9B14800683D
:1010D00000F0020020B12069012801D0012061E761
:1010E000AC48006820F0F800616940EAC100A949F5
:1010F000086033E02069E8B10120A7490860FFF7E4
:101100005FFD054606E0FFF75BFD401B022801D9A5
:10111000032047E79F48006800F002000028F2D053
:101120009C48006820F0F800616940EAC1009949D4
:10113000086013E0002098490860FFF741FD05466C
:1011400006E0FFF73DFD401B022801D9032029E7F7
:101150009048006800F002000028F2D1207800F0EA
:10116000080008282DD1A069B8B101208B4908607A
:10117000FFF726FD054606E0FFF722FD401B02288B
:1011800001D903200EE78348406A00F002000028DE
:10119000F2D0012000F068FF13E000207F490860D2
:1011A000FFF70EFD054606E0FFF70AFD401B02288B
:1011B00001D90320F6E67748406A00F002000028D3
:1011C000F2D1207800F00400042873D10027714880
:1011D000C06900F0805070B900BF6E48C06940F02F
:1011E00080506C49C8610846C06900F0805000908A
:1011F00000BF00BF01276A48006800F48070B0B9E2
:101200006748006840F4807065490860FFF7D8FCC3
:10121000054606E0FFF7D4FC401B642801D90320F3
:10122000C0E65F48006800F480700028F2D000BF7C
:10123000E068012806D15748006A40F0010055498E
:10124000086227E0E06858B95248006A20F00100BF
:10125000504908620846006A20F00400086219E05C
:10126000E06805280BD14B48006A40F0040049496A
:1012700008620846006A40F0010008620AE045483A
:10128000006A20F00100434908620846006A20F025
:101290000400086200BFE068A0B1FFF791FC0546BA
:1012A00009E0FFF78DFC401B41F28831884202D9EA
:1012B000032077E622E03748006A00F002000028A9
:1012C000EFD012E0FFF77CFC054608E0FFF778FC62
:1012D000401B41F28831884201D9032062E62D4843
:1012E000006A00F002000028F0D1012F05D1294842
:1012F000C06920F080502749C86100BFE069C8B3C9
:101300002448406800F00C00082860D0E0690228FA
:1013100048D1002020490866FFF752FC054606E048
:10132000FFF74EFC401B022801D903203AE619487A
:10133000006800F000700028F2D1206AB0F5803F0C
:1013400007D11448406820F40030A16808431149CF
:101350004860D4E9080108430E49496821F4741132
:1013600008430C49486001200B490866FFF728FC38
:10137000054607E03DE0FFF723FC401B022801D9AA
:1013800003200FE60348006800F000700028F2D048
:101390002FE0000000100240000042428004424260
:1013A00000700040002014490866FFF709FC05465C
:1013B00006E0FFF705FC401B022801D90320F1E5F8
:1013C0000E48006800F000700028F2D111E0E069DA
:1013D000012800D1E6E50948466806F48031206A14
:1013E000814204D106F47011606A814201D001206B
:1013F000D8E50020D6E5000000004242001002407F
:1014000010B504460CB9012010BD606A38B9606897
:10141000B0F5827F00D105E00021E16102E000210A
:10142000216161610021A16294F8510028B9002076
:1014300084F85000204600F043F8022084F8510060
:101440002068006820F0400021680860A08800F44F
:101450008270218901F404410843A18901F40061EB
:101460000843217C01F002010843217D01F00101C4
:101470000843218B01F400710843217F01F03801FA
:1014800008432021095D01F080010843218D01F40A
:1014900000510843216808600421A06901EA104056
:1014A000216848602068C06920F400602168C86134
:1014B00000206065012084F851000020A4E70000AE
:1014C00010B586B004460020029003900490059069
:1014D0001A49206888422FD100BF1948C06940F4DA
:1014E00080401749C8610846C06900F480400190F7
:1014F00000BF00BF00BF0846806940F00800886157
:101500000846806900F00800019000BF00BF4FF45A
:1015100020400290022003900320059002A9094870
:10152000FFF7A8F94FF48040029000200390049048
:1015300002A90448FFF79EF906B010BD003800402C
:1015400000100240000C01402DE9F8430446884693
:1015500016461D464FF0000994F85100012802D0AC
:101560004FF00209A8E06068B0F5827F0DD1A06855
:1015700058B9042084F8510033464246414620467B
:10158000009500F07EF9BDE8F88300BF94F85000A4
:10159000012801D10220F6E7012084F8500000BFA5
:1015A000FFF70EFB0746B8F1000F00D016B94FF059
:1015B000010981E0042084F8510000206065C4F82E
:1015C0003880A687E6872063A086E0862064606472
:1015D000A068B0F5004F0BD12068006820F04000F3
:1015E000216808602068006820F480402168086055
:1015F0002068006800F04000402805D0206800689E
:1016000040F0400021680860E06810BB1DE02068E1
:10161000806800F0010050B12068007BA16B087069
:10162000A06B401CA063E08F401EE0870DE0FFF739
:10163000C7FAC01BA84201D3681C00B92DB94FF0EE
:101640000309012084F8510036E0E08F0028DED144
:1016500021E01DE02068806800F0010050B12068A2
:10166000C068A16B0880A06B801CA063E08F401E47
:10167000E0870DE0FFF7A4FAC01BA84201D3681C65
:1016800000B92DB94FF00309012084F8510013E08F
:10169000E08F0028DED13A462946204600F0F8FCCB
:1016A00008B120206065606D10B14FF0010902E0C3
:1016B000012084F8510000BF00BF002084F85000D2
:1016C00000BF48465FE72DE9F84F044688461646B6
:1016D0001D464FF0000A00BF94F85000012802D1C7
:1016E0000220BDE8F88F012084F8500000BFFFF70A
:1016F00067FA0746B14694F85100012802D04FF02E
:10170000020AB7E0B8F1000F00D016B94FF0010A95
:10171000B0E0032084F8510000206065C4F83080F8
:10172000A686E686A063A087E08760642064A06840
:10173000B0F5004F0BD12068006820F04000216810
:1017400008602068006840F48040216808602068D4
:10175000006800F04000402805D02068006840F094
:10176000400021680860E068B0F5006F32D1606821
:1017700010B1B9F1010F09D1206B00882168C86050
:10178000206B801C2063E08E401EE0861EE02068F7
:10179000806800F0020002280AD1206B00882168CE
:1017A000C860206B801C2063E08E401EE0860DE048
:1017B000FFF706FAC01BA84201D3681C00B92DB977
:1017C0004FF0030A012084F8510053E0E08E002816
:1017D000DDD131E0606810B1B9F1010F09D1206BA2
:1017E000007821680873206B401C2063E08E401E47
:1017F000E0861EE02068806800F0020002280AD11E
:10180000206B007821680873206B401C2063E08EF9
:10181000401EE0860DE0FFF7D3F9C01BA84201D3BC
:10182000681C00B92DB94FF0030A012084F851005B
:1018300020E0E08E0028DDD13A462946204600F01F
:1018400063FC08B120206065A06850B900BF00208B
:1018500000902068C068009020688068009000BFF9
:1018600000BF606D10B14FF0010A02E0012084F862
:10187000510000BF00BF002084F8500000BF504658
:101880002FE72DE9FF5F0446884691461D460E9ED0
:10189000012002900020019000BF94F85000012820
:1018A00003D1022004B0BDE8F09F012084F850006D
:1018B00000BFFFF785F9074694F851B060680390C0
:1018C000AA46BBF1010F0BD00398B0F5827F04D17B
:1018D000A06810B9BBF1040F02D002200190E9E02A
:1018E000B8F1000F03D0B9F1000F00D015B90120F5
:1018F0000190DFE094F85100042802D0052084F81C
:10190000510000206065C4F83890E587A587C4F8C9
:101910003080E586A586206460642068006800F059
:101920004000402805D02068006840F04000216851
:101930000860E068B0F5006F4DD1606810B1BAF191
:10194000010F09D1206B00882168C860206B801CC2
:101950002063E08E401EE08636E02068806800F05C
:101960000200022810D1E08E70B1029801280BD13C
:10197000206B00882168C860206B801C2063E08E8B
:10198000401EE086002002902068806800F0010080
:1019900068B1E08F58B12068C068A16B0880A06B67
:1019A000801CA063E08F401EE08701200290FFF7BB
:1019B00007F9C01BB04207D3701C28B10320019067
:1019C000012084F8510075E0E08E0028C5D1E08F39
:1019D0000028C2D14DE0606810B1BAF1010F09D101
:1019E000206B007821680873206B401C2063E08E18
:1019F000401EE08637E02068806800F00200022880
:101A000010D1E08E70B1029801280BD1206B0078C4
:101A100021680873206B401C2063E08E401EE08626
:101A2000002002902068806800F0010068B1E08F1B
:101A300058B12068C068A16B0870A06B401CA063FF
:101A4000E08F401EE08701200290FFF7B9F8C01B2D
:101A5000B04201D3701C00B92EB9032001900120BF
:101A600084F8510026E0E08E0028C4D1E08F0028E1
:101A7000C1D13A463146204600F046FB20B1012054
:101A800001902020606515E0A06850B900BF0020DB
:101A900000902068C068009020688068009000BFB7
:101AA00000BF606D10B10120019002E0012084F8B8
:101AB000510000BF00BF002084F8500000BF019813
:101AC000F0E670B504462546681EB0F1807F01D36C
:101AD00001200FE0681E4FF0E02148610F214FF018
:101AE000FF3000F0ADFC00204FF0E02188610720BE
:101AF0000861002070BD10B504460CB9012010BD6E
:101B0000A06900B100E000BF94F8410028B90020AE
:101B100084F84000204600F029F8242084F8410091
:101B20002068C06820F400502168C860204600F09A
:101B3000A5FB2068006920F49040216808612068B6
:101B4000406920F02A00216848612068C06840F49C
:101B500000502168C86000206064202084F84100A3
:101B600084F842000020606300BFC8E710B586B06B
:101B70000446002002900390049005901A492068C2
:101B800088422ED100BF1948806940F4804017492F
:101B900088610846806900F48040019000BF00BF62
:101BA00000BF0846806940F00400886108468069EB
:101BB00000F00400019000BF00BF48150290022011
:101BC00003900320059002A90948FEF753FE4FF445
:101BD0008060029000200390049002A90448FEF760
:101BE00049FE06B010BD0000003801400010024060
:101BF000000801402DE9F84F04460E461746994665
:101C00004FF0000A94F8410020284AD106B117B9D4
:101C10000120BDE8F88F00206064212084F8410095
:101C2000FEF7CEFF8246A784E784A068B0F5805F08
:101C300004D1206910B90025B04602E035464FF0C6
:101C400000081BE05346002280212046CDF800907A
:101C500000F092FB08B10320DBE745B9B8F80000BB
:101C6000C0F308002168486008F1020803E0287802
:101C7000216848606D1CE08C401EE084E08C0028E8
:101C8000E0D15346002240212046CDF8009000F0DC
:101C900073FB08B10320BCE7202084F8410000203A
:101CA000B7E70220B5E700BFFEE7000010B501224C
:101CB00011030248FEF77EFF10BD0000000C01403A
:101CC0002DE9FF4182B00D461646DDE90C78022071
:101CD000019046EA0510C0B2009000F0F1F800F063
:101CE00025F900F0E3F84FF47A73012201A91648B0
:101CF000FFF7E9FC4FF47A73012202A91248FFF7BB
:101D0000E2FC4FF47A73012269460F48FFF7DBFCCF
:101D10004FF47A73012205A90B48FFF7D4FC002485
:101D200008E039194FF47A7301220748FFF7CBFC1A
:101D3000601CC4B24445F4DBFFF7B8FF00F0E4F8E0
:101D400006B0BDE8F081000018000020FFB583B0A8
:101D50000C461546DDE90C670320029045EA0410A5
:101D6000C0B2019000F0ACF800F0A0F84FF47A7324
:101D7000012202A91148FFF7A6FC4FF47A73012251
:101D800003A90E48FFF79FFC4FF47A73012201A9C3
:101D90000A48FFF798FC4FF47A73012206A9074816
:101DA000FFF791FC4FF47A733A4631460348FFF748
:101DB000CBFBFFF77BFF07B0F0BD00001800002051
:101DC0007CB504460D461646032001900020009085
:101DD000200C8DF80000200A8DF80100E0B28DF88B
:101DE000020000F06DF800F061F84FF47A73012200
:101DF00001A91248FFF767FC4FF47A730122694684
:101E00000E48FFF760FC4FF47A7301220DF10101D7
:101E10000A48FFF758FC4FF47A7301220DF10201D2
:101E20000648FFF750FC4FF47A73324629460348C0
:101E3000FFF78AFBFFF73AFF7CBD00001800002087
:101E400013B582B00C46202001900020009020079E
:101E5000000E8DF8000000F033F800F067F800F095
:101E600025F84FF47A73012201A90F48FFF72BFCE4
:101E70004FF47A73012202A90B48FFF724FC4FF4B8
:101E80007A73012269460848FFF71DFC4FF47A7304
:101E900001220DF101010448FFF715FCFFF706FFD1
:101EA00000F032F81FBD00001800002010B500221D
:101EB0004FF480510148FEF77DFE10BD000C01403B
:101EC0001CB50020019005200090FFF7EFFF13E004
:101ED0004FF47A73012269460A48FFF7F4FB4FF486
:101EE0007A73012201A90748FFF72EFB9DF8040031
:101EF00000F0010000B900E0EAE700BFFFF7D6FEFE
:101F00001CBD00001800002008B504200090FFF759
:101F1000CDFF4FF47A73012269460348FFF7D3FBE4
:101F2000FFF7C4FE08BD00001800002008B5062019
:101F30000090FFF7BBFF4FF47A7301226946034814
:101F4000FFF7C1FBFFF7B2FE08BD0000180000203C
:101F500000B585B00020019002900390049000BF6E
:101F60001D48806940F010001B498861084680695F
:101F700000F01000009000BF00BF00BF084680695D
:101F800040F0080088610846806900F00800009071
:101F900000BF00BF00BF0846806940F004008861B0
:101FA0000846806900F00400009000BF00BF0122D5
:101FB00089140A48FEF7FEFD4FF48050019001207D
:101FC0000290002003900320049001A90348FEF72B
:101FD00051FC05B000BD000000100240000C0140A3
:101FE00010B50E480E4908604FF482704860002119
:101FF0000B488160C160016141614FF400718161F2
:102000000821C16100210162416281620A21C1622D
:10201000FFF7F6F908B1FEF780FA10BD003800406E
:102020001800002010B50B480B4908604FF4E13050
:102030004860002108488160C16001610C21416154
:1020400000218161C161FFF756FD08B1FEF765FA15
:1020500010BD0000003801407000002000BFFEE706
:1020600000BFFEE77047000008B508490968C908C5
:102070004FF47A72B1FBF2F14143009100BF00BF0F
:1020800000994A1E00920029F9D108BD0C000020D9
:10209000F8B504460E4615466068B0F5827F0DD14E
:1020A000A068B0F5004F03D0A068B0F5806F05D1EF
:1020B0002068006820F04000216808606068B0F582
:1020C000827F11D1A068B0F5806F0DD13346002218
:1020D00001212046009500F02BF898B1606D40F08A
:1020E000200060650320F8BD334600228021204691
:1020F000009500F01DF828B1606D40F0200060658B
:102100000320F0E70020EEE7F8B504460D4616463A
:102110002B46002280212046009600F009F828B1C5
:10212000606D40F0200060650320F8BD0020FCE7F2
:102130002DE9F84F04460D4690461E46DDF82890DE
:10214000FEF73EFDA0EB0900371AFEF739FD824687
:102150002C480068C0F3CB307843009045E0701CF9
:10216000002842D0FEF72CFDA0EB0A00B84200D2B6
:10217000A7BB2068406820F0E000216848606068E4
:10218000B0F5827F0DD1A068B0F5004F03D0A068F4
:10219000B0F5806F05D12068006820F0400021680C
:1021A0000860A06AB0F5005F0DD100BF206800682C
:1021B00020F40050216808602068006840F4005056
:1021C0002168086000BF012084F8510000BF002092
:1021D00084F8500000BF0320BDE8F88FFFE70098A7
:1021E00000B900270098401E0090206880682840B1
:1021F000A84201D1012000E000204045AFD10020DD
:10220000EAE700000C000020704710B5FEF7DEFC86
:1022100010BD00B58FB0282105A8FDF7BEFF142121
:102220006846FDF7BAFF01200590000406900020E3
:1022300007900120099002200C90C1030D914FF4EA
:10224000E0110E9105A8FEF7A9FE08B1FEF765F9A9
:102250000F20009002200190002002904FF4806037
:1022600003900020049002216846FEF773FD08B138
:10227000FEF753F90FB000BD7047000070B504467B
:102280002168096921F44051E26811432268116113
:102290002269A1681143626941EA02052168C9689F
:1022A00041F20C62914329432268D1602168496957
:1022B00021F44071A2691143226851612D4A2168BD
:1022C000914202D1FEF722FE01E0FEF70FFE00EB85
:1022D000C00101EB001162689200B1FBF2F100EB6A
:1022E000C00202EB001263689B00B2FBF3F26423AE
:1022F000B2FBF3F202EBC20303EB0212A1EB820189
:10230000322202EB01116422B1FBF2F101F0F00183
:1023100000EBC00202EB001263689B00B2FBF3F219
:102320006423B2FBF3F201EB021200EBC00101EBFC
:10233000001163689B00B1FBF3F100EBC00303EBFA
:1023400000136668B600B3FBF6F36426B3FBF6F33E
:1023500003EBC30606EB0313A1EB8301322303EB6C
:1023600001116423B1FBF3F101F00F011144226864
:10237000916070BD003801402DE9F04104460D46E2
:1023800017469846069E34E0701C88B32EB1FEF7BF
:1023900017FCA0EB0800B0422BD900BF00BF21689A
:1023A0000C3151E8001F21F4D07021680C3141E854
:1023B0000002002AF3D100BF00BF00BF2168143122
:1023C00051E8001F21F001002168143141E80002AA
:1023D000002AF3D100BF202084F8410084F8420095
:1023E00000BF002084F8400000BF0320BDE8F0815A
:1023F000FFE7206800682840A84201D1012000E0E2
:102400000020B842C0D00020F0E700BFFEE7000087
:102410000FB4054B10B503A9044A029800F034F834
:1024200010BC5DF814FB0000DD250008140000203E
:1024300002480068C0F30220704700000CED00E085
:1024400010B5002804DB0A07130E054A135406E0F2
:102450000A07140E034A00F00F031B1FD45410BDCB
:1024600000E400E018ED00E002E008C8121F08C117
:10247000002AFAD170477047002001E001C1121F05
:10248000002AFBD1704700002DE9FF4F89B09B4621
:102490000446002506E025280BD05A460B999047A4
:1024A000641C6D1C20780028F5D10DB02846BDE8CD
:1024B000F08F0027B8460122474900E0074314F88F
:1024C000013F203B02FA03F00842F7D120782E2882
:1024D00019D114F8010F47F004072A280ED06FF025
:1024E0002F022078A0F1300109290CD808EB8801CF
:1024F00002EB410100EB0108641CF2E70A98641C3E
:1025000050F8048B0A9020780028CED0642808D098
:10251000692806D075281ED05A460B9990476D1C25
:1025200058E00A994FF00A0901C90A91002802DA15
:1025300040422D2102E0390504D52B218DF82010D1
:10254000012103E0F90704D02021F7E78A4608AE0D
:102550000DE00021FAE70A994FF00A0901C90A9132
:10256000F7E74946FDF724FE303106F8011D002843
:10257000F7D1ADEB060000F12009780701D44FF048
:102580000108C84502DDA8EB090000E000208046F4
:10259000002706E008A85A46C05D0B9990476D1CBD
:1025A0007F1C5745F6DB04E030205A460B999047D4
:1025B0006D1CB8F10001A8F10108F5DC05E016F882
:1025C000010B5A460B9990476D1CB9F10001A9F116
:1025D0000109F4DC641C65E70928010013B50C4609
:1025E0004FF47A73012269460248FFF703FB009813
:1025F0001CBD000070000020FEF7F4FAFFF709FE92
:10260000FFF7A6FCFFF7ECFCFFF70CFD09A0FFF7B6
:10261000FFFEFDF7F5FDFDF7B5FE4FF47A70FEF70E
:1026200043F809A0FFF7F4FE0B48FDF751FE00BF89
:10263000FEE70000496E746F20626F6F746C6F610B
:102640006465720A000000006A756D7020746F2066
:102650006170700A00000000008000080203040599
:10266000060708090A0B0C0D0E0F101001020000DE
:102670000000000000000102030406070809000032
:102680000000010203040000777269746520666C23
:1026900061736820737563636573732E20415050B6
:1026A0002073697A653A25642C7772697474656E53
:1026B0002073697A653A25642C72656D61696E20B4
:1026C00073697A653A25640A00000000EC26000868
:1026D00000000020180000006824000804270008FB
:1026E00018000020C00C0000782400080000000042
:1026F00010000000010000000024F40000000000B1
:0427000000000000D5
:0400000508000131BD
:00000001FF
