:020000040800F2
:10000000F80500200501000849260008032400081F
:1000100045260008BD050008E52C0008000000008A
:10002000000000000000000000000000952800080B
:1000300079060008000000004D26000897280008F7
:100040001F0100081F0100081F0100081F01000810
:100050001F0100081F0100081F0100081F01000800
:100060001F0100087B0600081F0100081F0100088F
:100070001F0100081F0100081F0100081F010008E0
:100080001F0100081F0100081F0100081F010008D0
:100090001F0100081F0100081F0100081F010008C0
:1000A0001F0100081F0100081F0100081F010008B0
:1000B0001F0100081F0100081F0100081F010008A0
:1000C0001F0100081F0100081F0100081F01000890
:1000D0001F010008D52C00081F0100081F0100089F
:1000E0001F0100081F0100081F010008DFF810D0E1
:1000F00000F06EF800480047E9310008AFF30080D7
:10010000F80500200648804706480047FEE7FEE75E
:10011000FEE7FEE7FEE7FEE7FEE7FEE7FEE7FEE7B7
:1001200005290008ED000008202A04DB203A21FA06
:1001300002F00021704721FA02F3D040C2F1200200
:100140009140084319467047D2B201E000F8012BF4
:10015000491EFBD270470022F6E710B513460A4647
:1001600004461946FFF7F0FF204610BD2DE9F05F69
:100170000546002092469B46884606468146402416
:100180001BE02846414647462246FFF7CDFF53462F
:100190005A46C01A914110D311461846224600F023
:1001A00029F82D1A67EB01084F462246012000214D
:1001B00000F020F817EB00094E41201EA4F10104C5
:1001C000DFDC484631462A464346BDE8F09F000042
:1001D000064C074D06E0E06840F0010394E8070094
:1001E00098471034AC42F6D3FFF784FF8032000802
:1001F000A0320008202A04DB203A00FA02F1002095
:1002000070479140C2F1200320FA03F31943904054
:100210007047000000B585B000F064FC002001903C
:1002200002900390049001900848039008480088C9
:10023000012101EB9020049000200090694601A864
:1002400000F096FB00F0ECFB05B000BD008000085C
:100250002800002010B505A002F050FD4FF4807278
:100260000749084801F0CFFD10BD00004170702023
:1002700055706461746520496E6974210A0000003C
:10028000F80000209000002038B554480078AC28D1
:100290007DD152484078BD28FAD150488078CE2888
:1002A000F6D14FA002F02AFD4FF47A7000F04CFB1B
:1002B0000020574908805748008857490880002582
:1002C00023E000240DE052490988544A11440819DA
:1002D000082100F095F9052000F036FB04F1080034
:1002E00084B2B4F5806FEEDB4948008800F5806089
:1002F0004749088048480088A0F580604649088042
:10030000C82000F021FB681C85B242490888C1174B
:1003100000EB9151B5EBA12FD3DB2DE03E480088D7
:10032000082814DB3A4909883C4A8818082100F05B
:1003300067F9052000F008FB35480088083034498B
:1003400008803548008808383349088014E0324A6C
:1003500011782F4A1288314BD01800F051F905203E
:1003600000F0F2FA2A4800882B49098808442849F5
:100370000880002028490880274800880028CDDC14
:100380004FF47A7000F0E0FA2248007800E024E0B0
:100390008DF800001F480088000A8DF80100022136
:1003A000684600F02DF91C4803881948028819484E
:1003B00001881BA002F0A2FC0220294908704FF41A
:1003C0007A7000F0C1FA002004E00021034A1154C1
:1003D000411CC8B20828F8DB00BF38BD1D00002052
:1003E000726563656976652063616E20757064610E
:1003F00074652072657175657374214E6F77207313
:1004000074617274207570646174696E670A0000AB
:100410002A000020280000202C0000200080000876
:1004200050726F6772616D2073656E64206F7665C0
:10043000722E4150502073697A653A25642C777288
:10044000697474656E2073697A653A25642C7265E7
:100450006D61696E2073697A653A25640A0000004F
:100460001C00002010B51B48007820B101280DD0D9
:1004700002282CD128E001F0C7FFFFF7EBFE022095
:100480001449087014A002F039FC21E01E480068ED
:10049000C8B100F011FD1C490968401AB0F5FA6FA7
:1004A00011D90020184908601848038818480288A4
:1004B00018480188184802F021FC022005490870FC
:1004C00016A002F01BFC03E0FFF7DEFE00E000BF19
:1004D00000BF10BD1C000020506C65617365207367
:1004E000656E64207570646174652070726F6772E8
:1004F000616D206279205541525421204252503D75
:100500003131353230300A00300000202C0000201C
:100510002A000020280000203C320008506C656151
:1005200073652073656E642075617274206F72202C
:1005300063616E20757064617465207265717565A4
:10054000736574210A00000070B5002500F0CAFA36
:10055000002412E01348015D0246601C105C41EA71
:10056000002511480088114A104401192A46002329
:10057000012000F05FFAA01C84B20D48008884427C
:10058000E8DB00F04DFA0B48008809490988401A59
:1005900008490880084800880988401A02490880EC
:1005A00070BD0000F80000202A0000200080000834
:1005B000260000202C0000202800002000BFFEE7BD
:1005C00070B505460E46652002F062F80B490870CA
:1005D000084600783070002407E004F16601C8B2D4
:1005E00002F056F82855601CC4B2044800788442D2
:1005F000F3DB00212C2002F065F870BD180000200C
:100600002DE9F04105460E46A02002F041F80746CC
:100610003146352002F056F8002407E0295D04F148
:100620003602D0B202F04EF8601CC4B2B442F5DB20
:1006300007F0040070B1012000F086F9002130209D
:1006400002F040F800BFA02002F022F800F0040001
:100650000028F8D100220121064800F027FC812063
:1006600002F042FB01221146024800F01FFCBDE8E7
:10067000F0810000000C0140704710B5082000F028
:1006800077FA10BD72B600BFFEE700000021074AEE
:10069000D1610749096941F00401054A1161114618
:1006A000096941F04001116170470000D800002045
:1006B000002002400021074AD1610749096941F041
:1006C0000201054A116111464861096941F0400182
:1006D00011617047D8000020002002400022054B25
:1006E000DA61054A126942F00102034B1A61018086
:1006F00070470000D80000200020024000201E4962
:10070000C96801F0100139B11C49C96941F0020101
:100710001A4AD16140F010001749C96801F004017C
:1007200039B11649C96941F00101144AD16140F05B
:1007300004001149C96901F0010169B10F49C96992
:1007400041F004010D4AD16100BF0B49C96921F094
:100750000101094AD16100BF00BF40F20111884286
:1007600006D10549C96921F00101034AD16101E0BF
:100770000149C86000BF704700200240D800002037
:1007800070B5044600F098FB054609E0601C38B1DE
:1007900024B100F091FB401BA04201D9032070BDA1
:1007A0001248C06800F001000028EFD10F48C0686F
:1007B00000F0200020B100BF20200C49C86000BF1D
:1007C0000A48C06800F0100048B90848C06900F045
:1007D000010020B90548C06800F0040018B1FFF717
:1007E0008DFF0120DBE70020D9E700000020024058
:1007F00010B504460CB9012010BD607920B9002065
:100800002071204600F004F8012060710020F3E719
:1008100008B5094A016891420DD100BF07494969ED
:1008200041F04001054A51611146496901F040011A
:10083000009100BF00BF08BD003002400010024020
:100840000146002291F82100022808D00420886384
:1008500000BF002081F8200000BF01207047086819
:10086000006820F00E000B6818600868006820F02F
:1008700001000B68186091F8403001209840CB6B64
:100880005860012081F8210000BF002081F820007D
:1008900000BF1046E2E7000070B50446002594F85A
:1008A0002100022803D00420A063012548E020682D
:1008B000006820F00E00216808602068006820F0C1
:1008C0000100216808601F492068884201D1012089
:1008D00026E01C4914312068884201D110201FE015
:1008E000184928312068884201D1801518E015493F
:1008F0003C312068884201D1801411E01149503107
:100900002068884202D14FF4803009E00D496431FB
:100910002068884202D14FF4801001E04FF08070CF
:10092000084908394860012084F8210000BF0020F0
:1009300084F8200000BF606B10B12046616B8847CF
:10094000284670BD0800024070B5044600F0B4FAB5
:1009500006462546681C10B104480078054400BFCF
:1009600000F0AAFA801BA842FAD370BD1000002044
:100970002DE9F04104460E460127002500BF264818
:10098000007E012802D10220BDE8F0810120224929
:10099000087600BF2068022813D14CF25030FFF7D0
:1009A000EFFE90BB0120FFF771FE4CF25030FFF7D5
:1009B000E7FE07461948006920F00400174908615E
:1009C00023E04CF25030FFF7DBFEF0B94FF0FF3080
:1009D0003060A56812E02846FFF76CFE4CF25030FC
:1009E000FFF7CEFE07460D48006920F002000B49D4
:1009F00008610FB1356007E005F58065D4E90210A4
:100A000001EB8020A842E6D800BF00BF00200249C9
:100A1000087600BF3846B7E7D80000200020024023
:100A20000348006940F080000149086100207047D8
:100A3000002002402DE9FE4F05468B46174698469A
:100A4000012600240020029000BF2448007E0128D7
:100A500002D10220BDE8FE8F01202049087600BFA8
:100A60004CF25030FFF78CFE064686BB012D02D1BA
:100A70000120029006E0022D02D10220029001E046
:100A80000420029000241EE02201B946C2464846D6
:100A90005146FFF749FB80B20190022000FB04B0F1
:100AA00000900199FFF71AFE4CF25030FFF768FEF4
:100AB00006460B48006920F001000949086106B1AB
:100AC00004E0601CC4B202988442DDDB00BF00BFBA
:100AD00000200249087600BF3046BBE7D80000205E
:100AE0000020024000200849096901F0800151B14D
:100AF0000649054A5160064951601146096901F0ED
:100B0000800101B1012070470020024023016745A8
:100B1000AB89EFCD70B50546082D13D10A490B48B6
:100B2000FFF74EFD0AA002F0E9F8002406E00748AE
:100B3000015D0DA002F0E2F8601CC4B2024800782A
:100B40008442F4DB70BD0000250000201D00002061
:100B5000526563656976652043414E207265717503
:100B6000657365743A0A0000253032582000000091
:100B700010B5044604480068204020B102480460D3
:100B80002046FFF7C7FF10BD140401402DE9F847C8
:100B90000346002294466EE14FF0010808FA02F481
:100BA000D1F8008008EA0400A0427DD1DFF8DCA281
:100BB000D1F80480A8EB0A09D0453AD014DCB8F18A
:100BC000030F50D009DCB8F1000F31D0B8F1010F9C
:100BD0001CD0B8F1020F49D120E0B8F1110F18D0A4
:100BE000B8F1120F42D11EE0B9F5881F25D006DCFE
:100BF000B9F5803F20D0B9F5801F37D11AE0B9F59B
:100C0000001F18D0B9F5041F30D117E0D1F80CC07F
:100C10002DE0D1F80C8008F1040C28E0D1F80C800C
:100C200008F1080C23E0D1F80C8008F10C0C1EE050
:100C300000BF00BF00BF00BF00BF00BFD1F80880E9
:100C4000B8F1000F02D14FF0040C0BE0D1F808808E
:100C5000B8F1010F03D14FF0080C1C6102E04FF016
:100C6000080C5C6103E04FF0000C00E000BF00BF27
:100C7000FF2801D8984601E003F104084646FF2802
:100C800002D84FEA820803E0A2F108084FEA880878
:100C90004746D6F800804FF00F0909FA07F928EA0D
:100CA00009080CFA07F900E088E048EA0908C6F8E4
:100CB0000080D1F8048008F08058B8F1805F7DD1C1
:100CC00000BFDFF8CC81D8F8188048F00108DFF8C1
:100CD000C091C9F81880C846D8F8188008F00108F3
:100CE000CDF8008000BF00BF4FEAB9384FEA920943
:100CF00058F829504FEA82784FEA18794FF00F08D8
:100D000008FA09F825EA0805DFF88881434502D189
:100D10004FF0000816E0DFF88081434502D14FF024
:100D200001080FE0DFF87481434502D14FF002085B
:100D300008E0DFF86C81434502D14FF0030801E081
:100D40004FF004084FEA82794FEA197908FA09F856
:100D500048EA0505DFF84C814FEA920948F8295026
:100D6000D1F8048008F48018B8F5801F0AD1DFF8A4
:100D70003881D8F8008048EA0008DFF82C91C9F8DB
:100D8000008009E0DFF82081D8F8008028EA000818
:100D9000DFF81491C9F80080D1F8048008F4001835
:100DA000B8F5001F10D1DFF8008108F10408D8F869
:100DB000008048EA0008DFF8F09000E05AE009F10E
:100DC0000409C9F800800DE0DFF8DC8008F10408B0
:100DD000D8F8008028EA0008DFF8CC9009F104096F
:100DE000C9F80080D1F8048008F40038B8F5003F55
:100DF0000ED1DFF8B480A8F10408D8F8008048EAE2
:100E00000008DFF8A490A9F10409C9F800800DE0FA
:100E1000DFF89480A8F10408D8F8008028EA0008D8
:100E2000DFF88490A9F10409C9F80080D1F80480A2
:100E300008F48038B8F5803F0ED1DFF86C80A8F157
:100E40000808D8F8008048EA0008DFF85C90A9F1AB
:100E50000809C9F800800DE0DFF84C80A8F1080807
:100E6000D8F8008028EA0008DFF83C90A9F10809CA
:100E7000C9F80080521CD1F8008028FA02F8B8F1B5
:100E8000000F7FF489AEBDE8F88700000000111064
:100E90000010024000080140000C01400010014019
:100EA0000014014008000140080401400AB101613A
:100EB00001E00B04036170470148006870470000BF
:100EC00008000020034800680349097808440149E4
:100ED00008607047080000201000002010B5084886
:100EE000006840F0100006490860032000F0A8F8F0
:100EF000002000F007F800F02BF8002010BD0000E3
:100F00000020024070B504460E4800784FF47A7114
:100F1000B1FBF0F00C490968B1FBF0F5284600F090
:100F200058FF08B1012070BD102C07D200222146C5
:100F3000501E00F047F80548046001E00120F2E788
:100F40000020F0E710000020140000200C0000201A
:100F500008B500BF1148806940F001000F49886161
:100F60000846806900F00100009000BF00BF00BF8C
:100F70000846C06940F08050C8610846C06900F06A
:100F80008050009000BF00BF00BF0549486820F0B6
:100F9000E06040F00070486000BF08BD00100240F3
:100FA0000000014001460846002809DB00F01F034D
:100FB00001229A4043099B0003F1E023C3F800217A
:100FC00000BF70472DE9F05F80460D4616460027AA
:100FD00001F0A4FE074639462A46334601F00700D1
:100FE000C0F1070ABAF1040F02D94FF0040A01E078
:100FF000C0F1070AD14600F1040ABAF1070F02D284
:101000004FF0000A01E0A0F1030AD4464FF0010AB4
:101010000AFA09FAAAF1010A0AEA020A0AFA0CFA19
:101020004FF0010B0BFA0CFBABF1010B0BEA030BBE
:101030004AEA0B042146404601F078FEBDE8F09FE5
:1010400000BF00F00702064B19684FF6FF03194076
:10105000044B0B4343EA0221014B196000BF704768
:101060000CED00E00000FA0570B504460D460CB921
:10107000012070BD5A48006800F00700A8420ED257
:101080005748006820F00700284355490860084683
:10109000006800F00700A84201D00120E9E72078AD
:1010A00000F0020002281DD1207800F0040004287E
:1010B00005D14C48406840F4E0604A4948602078D7
:1010C00000F00800082805D14648406840F4605008
:1010D000444948604348406820F0F000A168084354
:1010E00040494860207800F0010078B3606801282A
:1010F00006D13C48006800F4003090B90120B8E700
:101100006068022806D13748006800F0007040B9D6
:101110000120AEE73348006800F0020008B9012062
:10112000A7E73048406820F00300616808432D4974
:101130004860FFF7C1FE064609E0FFF7BDFE801BD1
:1011400041F28831884202D9032092E707E025481E
:10115000406800F00C006168B0EB810FEDD12048D1
:10116000006800F00700A8420ED91D48006820F072
:10117000070028431A4908600846006800F0070085
:10118000A84201D0012074E7207800F00400042870
:1011900007D11448406820F4E060E1680843114931
:1011A0004860207800F00800082808D10D48406801
:1011B00020F46050216940EAC1000A49486000F00B
:1011C0003FF808494968C1F30311074A515CC84018
:1011D0000649086006480068FFF794FE002048E7CB
:1011E00000200240001002402232000814000020BB
:1011F0000C00002001480068704700001400002027
:1012000000B5FFF7F7FF04494968C1F30221034A1B
:10121000515CC84000BD000000100240323200089E
:1012200000B5FFF7E7FF04494968C1F3C221034A4B
:10123000515CC84000BD000000100240323200087E
:1012400070B500210022002400230020134D69689E
:1012500001F00C05F5B1042D02D0082D19D101E0E3
:101260000F4819E00F4DC1F38346AB5D01F48035A3
:1012700055B10A4D6D68C5F340450B4E725D084D82
:101280005D43B5FBF2F402E0084D03FB05F4204694
:1012900002E000BF024800BF00BF70BD0010024066
:1012A00000127A00103200082032000800093D00C8
:1012B000F8B504460CB90120F8BD207800F0010013
:1012C000002878D0F848406800F00C0004280CD0C2
:1012D000F548406800F00C00082811D1F248406839
:1012E00000F48030B0F5803F0AD1EF48006800F488
:1012F000003000285FD0606800285CD10120DBE767
:1013000000BF6068B0F5803F06D1E748006840F450
:101310008030E549086028E0606858B9E248006814
:1013200020F48030E04908600846006820F48020FE
:1013300008601AE06068B0F5A02F0BD1DA480068A9
:1013400040F48020D84908600846006840F48030A6
:1013500008600AE0D448006820F48030D249086070
:101360000846006820F48020086000BF606888B1EB
:10137000FFF7A2FD054606E0FFF79EFD401B64282F
:1013800001D9032098E7C848006800F4003000281D
:10139000F2D010E0FFF790FD054606E0FFF78CFD68
:1013A000401B642801D9032086E7BF48006800F489
:1013B00000300028F2D1207800F00200022857D136
:1013C000B948406800F00C0050B1B748406800F0E0
:1013D0000C00082818D1B448406800F4803098B94F
:1013E000B148006800F0020020B12069012801D056
:1013F000012061E7AC48006820F0F800616940EA2C
:10140000C100A949086033E02069E8B10120A7497B
:101410000860FFF751FD054606E0FFF74DFD401B54
:10142000022801D9032047E79F48006800F0020026
:101430000028F2D09C48006820F0F800616940EA7A
:10144000C1009949086013E0002098490860FFF73F
:1014500033FD054606E0FFF72FFD401B022801D9AA
:10146000032029E79048006800F002000028F2D12C
:10147000207800F0080008282DD1A069B8B101201B
:101480008B490860FFF718FD054606E0FFF714FDDD
:10149000401B022801D903200EE78348406A00F070
:1014A00002000028F2D0012001F0D2F813E0002061
:1014B0007F490860FFF700FD054606E0FFF7FCFCEA
:1014C000401B022801D90320F6E67748406A00F065
:1014D00002000028F2D1207800F00400042873D123
:1014E00000277148C06900F0805070B900BF6E4895
:1014F000C06940F080506C49C8610846C06900F07E
:101500008050009000BF00BF01276A48006800F4C7
:101510008070B0B96748006840F480706549086021
:10152000FFF7CAFC054606E0FFF7C6FC401B64282F
:1015300001D90320C0E65F48006800F480700028ED
:10154000F2D000BFE068012806D15748006A40F099
:1015500001005549086227E0E06858B95248006A1E
:1015600020F00100504908620846006A20F004009B
:10157000086219E0E06805280BD14B48006A40F08A
:101580000400494908620846006A40F00100086208
:101590000AE04548006A20F0010043490862084615
:1015A000006A20F00400086200BFE068A0B1FFF705
:1015B00083FC054609E0FFF77FFC401B41F28831C0
:1015C000884202D9032077E622E03748006A00F01B
:1015D00002000028EFD012E0FFF76EFC054608E09D
:1015E000FFF76AFC401B41F28831884201D9032091
:1015F00062E62D48006A00F002000028F0D1012FB9
:1016000005D12948C06920F080502749C86100BF32
:10161000E069C8B32448406800F00C00082860D096
:10162000E069022848D1002020490866FFF744FC01
:10163000054606E0FFF740FC401B022801D90320C5
:101640003AE61948006800F000700028F2D1206ADC
:10165000B0F5803F07D11448406820F40030A168FD
:10166000084311494860D4E9080108430E49496814
:1016700021F4741108430C49486001200B490866A5
:10168000FFF71AFC054607E03DE0FFF715FC401B9D
:10169000022801D903200FE60348006800F000701B
:1016A0000028F2D02FE0000000100240000042426B
:1016B0008004424200700040002014490866FFF791
:1016C000FBFB054606E0FFF7F7FB401B022801D9AC
:1016D0000320F1E50E48006800F000700028F2D108
:1016E00011E0E069012800D1E6E50948466806F402
:1016F0008031206A814204D106F47011606A81420F
:1017000001D00120D8E50020D6E5000000004242CB
:101710000010024010B504460CB9012010BD606AEB
:1017200038B96068B0F5827F00D105E00021E16141
:1017300002E00021216161610021A16294F8510061
:1017400028B9002084F85000204600F043F8022019
:1017500084F851002068006820F04000216808608B
:10176000A08800F48270218901F404410843A18912
:1017700001F400610843217C01F002010843217D4E
:1017800001F001010843218B01F400710843217F1E
:1017900001F0380108432021095D01F08001084370
:1017A000218D01F400510843216808600421A069DB
:1017B00001EA1040216848602068C06920F4006098
:1017C0002168C86100206065012084F85100002074
:1017D000A4E7000010B586B00446002002900390F4
:1017E000049005901949206888422DD100BF1848FF
:1017F000806940F48050164988610846806900F489
:101800008050019000BF00BF00BF0846806940F0D3
:10181000040088610846806900F00400019000BF60
:1018200000BFA0200290022003900320059002A98F
:101830000848FFF7ABF94020029000200390049085
:1018400002A90448FFF7A2F906B010BD003001401C
:1018500000100240000801402DE9F8430446884684
:1018600016461D464FF0000994F85100012802D099
:101870004FF00209A8E06068B0F5827F0DD1A06842
:1018800058B9042084F85100334642464146204668
:10189000009500F07EF9BDE8F88300BF94F8500091
:1018A000012801D10220F6E7012084F8500000BF92
:1018B000FFF702FB0746B8F1000F00D016B94FF052
:1018C000010981E0042084F8510000206065C4F81B
:1018D0003880A687E6872063A086E086206460645F
:1018E000A068B0F5004F0BD12068006820F04000E0
:1018F000216808602068006820F480402168086042
:101900002068006800F04000402805D0206800688A
:1019100040F0400021680860E06810BB1DE02068CE
:10192000806800F0010050B12068007BA16B087056
:10193000A06B401CA063E08F401EE0870DE0FFF726
:10194000BBFAC01BA84201D3681C00B92DB94FF0E7
:101950000309012084F8510036E0E08F0028DED131
:1019600021E01DE02068806800F0010050B120688F
:10197000C068A16B0880A06B801CA063E08F401E34
:10198000E0870DE0FFF798FAC01BA84201D3681C5E
:1019900000B92DB94FF00309012084F8510013E07C
:1019A000E08F0028DED13A462946204600F0B6FEF8
:1019B00008B120206065606D10B14FF0010902E0B0
:1019C000012084F8510000BF00BF002084F85000BF
:1019D00000BF48465FE72DE9F84F044688461646A3
:1019E0001D464FF0000A00BF94F85000012802D1B4
:1019F0000220BDE8F88F012084F8500000BFFFF7F7
:101A00005BFA0746B14694F85100012802D04FF026
:101A1000020AB7E0B8F1000F00D016B94FF0010A82
:101A2000B0E0032084F8510000206065C4F83080E5
:101A3000A686E686A063A087E08760642064A0682D
:101A4000B0F5004F0BD12068006820F040002168FD
:101A500008602068006840F48040216808602068C1
:101A6000006800F04000402805D02068006840F081
:101A7000400021680860E068B0F5006F32D160680E
:101A800010B1B9F1010F09D1206B00882168C8603D
:101A9000206B801C2063E08E401EE0861EE02068E4
:101AA000806800F0020002280AD1206B00882168BB
:101AB000C860206B801C2063E08E401EE0860DE035
:101AC000FFF7FAF9C01BA84201D3681C00B92DB971
:101AD0004FF0030A012084F8510053E0E08E002803
:101AE000DDD131E0606810B1B9F1010F09D1206B8F
:101AF000007821680873206B401C2063E08E401E34
:101B0000E0861EE02068806800F0020002280AD10A
:101B1000206B007821680873206B401C2063E08EE6
:101B2000401EE0860DE0FFF7C7F9C01BA84201D3B5
:101B3000681C00B92DB94FF0030A012084F8510048
:101B400020E0E08E0028DDD13A462946204600F00C
:101B500021FE08B120206065A06850B900BF0020B8
:101B600000902068C068009020688068009000BFE6
:101B700000BF606D10B14FF0010A02E0012084F84F
:101B8000510000BF00BF002084F8500000BF504645
:101B90002FE72DE9FF5F0446884691461D460E9EBD
:101BA000012002900020019000BF94F8500001280D
:101BB00003D1022004B0BDE8F09F012084F850005A
:101BC00000BFFFF779F9074694F851B060680390B9
:101BD000AA46BBF1010F0BD00398B0F5827F04D168
:101BE000A06810B9BBF1040F02D002200190E9E017
:101BF000B8F1000F03D0B9F1000F00D015B90120E2
:101C00000190DFE094F85100042802D0052084F808
:101C1000510000206065C4F83890E587A587C4F8B6
:101C20003080E586A586206460642068006800F046
:101C30004000402805D02068006840F0400021683E
:101C40000860E068B0F5006F4DD1606810B1BAF17E
:101C5000010F09D1206B00882168C860206B801CAF
:101C60002063E08E401EE08636E02068806800F049
:101C70000200022810D1E08E70B1029801280BD129
:101C8000206B00882168C860206B801C2063E08E78
:101C9000401EE086002002902068806800F001006D
:101CA00068B1E08F58B12068C068A16B0880A06B54
:101CB000801CA063E08F401EE08701200290FFF7A8
:101CC000FBF8C01BB04207D3701C28B10320019061
:101CD000012084F8510075E0E08E0028C5D1E08F26
:101CE0000028C2D14DE0606810B1BAF1010F09D1EE
:101CF000206B007821680873206B401C2063E08E05
:101D0000401EE08637E02068806800F0020002286C
:101D100010D1E08E70B1029801280BD1206B0078B1
:101D200021680873206B401C2063E08E401EE08613
:101D3000002002902068806800F0010068B1E08F08
:101D400058B12068C068A16B0870A06B401CA063EC
:101D5000E08F401EE08701200290FFF7ADF8C01B26
:101D6000B04201D3701C00B92EB9032001900120AC
:101D700084F8510026E0E08E0028C4D1E08F0028CE
:101D8000C1D13A463146204600F004FD20B1012081
:101D900001902020606515E0A06850B900BF0020C8
:101DA00000902068C068009020688068009000BFA4
:101DB00000BF606D10B10120019002E0012084F8A5
:101DC000510000BF00BF002084F8500000BF019800
:101DD000F0E670B504462546681EB0F1807F01D359
:101DE00001200FE0681E4FF0E02148610F214FF005
:101DF000FF3000F09BFF00204FF0E02188610720BA
:101E00000861002070BDF8B504460E46174694F8E8
:101E1000420020282ED106B10FB90120F8BD0120C3
:101E20002063002060633A463146204600F0B8FE49
:101E30000546EDB9206B012819D100BF00200090A4
:101E400020680068009020684068009000BF00BFD4
:101E500000BF00BF21680C3151E8001F41F01000A5
:101E600021680C3141E80002002AF3D100E001258D
:101E70002846D3E70220D1E770B505460C46204935
:101E8000286888423AD11F480078022824D11E4889
:101E900000785A2820D1032C1ED11B488378427821
:101EA00001781AA000F02AFF012016490870164890
:101EB00040781549897840EA01201A490880084687
:101EC000008819490880002018490880FEF7A2F907
:101ED00017A000F013FF0BE00A480078012807D193
:101EE000FEF7EAFF1849086018480480FEF72CFB4B
:101EF0004FF4807204491648FFF785FF70BD00005B
:101F0000003801401C000020F80000207265636565
:101F10006976652025235820252358202523580A33
:101F200000000000280000202C0000202A000020D3
:101F3000506C656173652073656E642062696E2004
:101F400066696C65210A0000300000202600002030
:101F500090000020704700002DE9F84F04462068EB
:101F600005682068C668206847694FF00009CA46BE
:101F700005F00F09B9F1000F0AD105F0200038B1C2
:101F800006F0200020B1204600F00DFDBDE8F88FDE
:101F9000B9F1000F7BD007F0010018B906F490707A
:101FA000002874D005F0010030B106F4807018B13B
:101FB000606C40F00100606405F0040030B107F08F
:101FC000010018B1606C40F00200606405F002008E
:101FD00030B107F0010018B1606C40F0040060649B
:101FE00005F0080048B106F0200010B907F0010024
:101FF00018B1606C40F008006064606C002845D047
:1020000005F0200028B106F0200010B1204600F0B5
:10201000CAFC20684069C0F3801A606C00F00800B8
:1020200010B9BAF1000F2CD0204600F076FC2068E1
:10203000406900F0400000B300BF00BF21681431C8
:1020400051E8001F21F040002168143141E80002EE
:10205000002AF3D100BFE06B50B17748E16B4863D1
:10206000E06BFEF719FC88B1E06B416B88470DE02F
:102070002046FFF76FFF09E009E02046FFF76AFFFF
:1020800004E02046FFF766FF002060647EE7206BD7
:10209000012877D105F01000002873D006F0100059
:1020A0000028FAD000BF002000902068006800904F
:1020B00020684068009000BF00BF2068406900F0C1
:1020C000400000285FD0E06B006840681FFA80F88D
:1020D000B8F1000F55D0A08D404552DDA4F82E80F8
:1020E000E06B8069202843D000BF00BF21680C311D
:1020F00051E8001F21F4807021680C3141E8000292
:10210000002AF3D100BF00BF00BF2168143151E89D
:10211000001F21F001002168143141E80002002A6B
:10212000F3D100BF00BF00BF2168143151E8001F88
:1021300021F040002168143141E80002002AF3D167
:1021400000BF202084F842000020206300BF00BFB1
:1021500021680C3151E8001F21F0100021680C317A
:1021600041E80002002AF3D100BFE06BFEF768FBF4
:1021700002206063A08DE28D801A81B22046FFF7B5
:102180007BFE03E742E0A08DE18D401A1FFA80F844
:10219000E08DD0B3B8F1000F37D000BF00BF216889
:1021A0000C3151E8001F21F4907021680C3141E896
:1021B0000002002AF3D100BF00BF00BF2168143124
:1021C00051E8001F21F001002168143141E80002AC
:1021D000002AF3D100BF202084F8420000202063B1
:1021E00000BF00BF21680C3151E8001F21F0100032
:1021F00021680C3141E80002002AF3D100BF02201F
:10220000606341462046FFF737FEBFE605F08000D9
:1022100030B106F0800018B1204600F0E1FCB5E6D0
:1022200005F0400030B106F0400018B1204600F043
:10223000AAFBABE600BFA9E60729000810B50446D3
:102240000CB9012010BDA06900B100E000BF94F8F6
:10225000410028B9002084F84000204600F02AF808
:10226000242084F841002068C06820F400502168D0
:10227000C860204600F016FC2068006920F49040F9
:10228000216808612068406920F02A0021684861BF
:102290002068C06840F400502168C8600020606475
:1022A000202084F8410084F842000020606300BFD1
:1022B000C8E7000010B586B00446002002900390E5
:1022C000049005901E492068884236D100BF1D4801
:1022D000806940F480401B4988610846806900F4A9
:1022E0008040019000BF00BF00BF0846806940F0F9
:1022F000040088610846806900F00400019000BF76
:1023000000BF48150290022003900320059002A907
:102310000D48FEF73BFC4FF48060029000200390D4
:10232000049002A90848FEF731FC0022114625203E
:10233000FEF748FE2520FEF735FE06B010BD000072
:1023400000380140001002400008014070472DE9AC
:10235000F84F04460E46174699464FF0000A94F887
:10236000410020284AD106B117B90120BDE8F88FF5
:1023700000206064212084F84100FEF79DFD824624
:10238000A784E784A068B0F5805F04D1206910B904
:102390000025B04602E035464FF000081BE05346EA
:1023A000002280212046CDF8009000F049FC08B1C1
:1023B0000320DBE745B9B8F80000C0F30800216846
:1023C000486008F1020803E02878216848606D1C25
:1023D000E08C401EE084E08C0028E0D153460022CF
:1023E00040212046CDF8009000F02AFC08B10320DF
:1023F000BCE7202084F841000020B7E70220B5E7C1
:10240000704700BFFEE7000010B500F075F901202D
:10241000FEF79AFA0021202000F054F90021212033
:1024200000F050F90021084600F04CF9002101208D
:1024300000F048F903212A2000F044F991212920D5
:1024400000F040F90321282000F03CF90D21312053
:1024500000F038F90021322000F034F960210846FC
:1024600000F030F90021612000F02CF96021622099
:1024700000F028F90821652000F024F9FF21002050
:1024800000F020F9E021012000F01CF9FF212020BC
:1024900000F018F9E021212000F014F900212C208F
:1024A00000F010F901212B2000F00CF904210F207D
:1024B00000F008F90E2000F0EBF807490870084614
:1024C000007808B1012000E0002018B104210F209D
:1024D00000F0F8F810BD00001900002010B5054804
:1024E000054908600846FEF783F908B1FEF7CAF807
:1024F00010BD0000003002400000002000B585B093
:102500000020019002900390049000BF2B48806946
:1025100040F01000294988610846806900F01000E9
:10252000009000BF00BF00BF0846806940F0200057
:1025300088610846806900F02000009000BF00BF5D
:1025400000BF0846806940F0040088610846806941
:1025500000F00400009000BF00BF00BF0846806983
:1025600040F0080088610846806900F0080000908B
:1025700000BF00BF012211461148FEF797FC012061
:1025800001900290002003900320049001A90C48C0
:10259000FEF7FCFA082001900A48029001200390FF
:1025A00001A90748FEF7F2FA002204210920FEF7EC
:1025B00009FD0920FEF7F6FC05B000BD0010024041
:1025C000000C01400000211010B50E480E490860B3
:1025D0004FF48270486000210B488160C160016146
:1025E00041614FF4007181612021C16100210162CC
:1025F000416281620A21C162FFF78CF808B1FEF7DF
:1026000041F810BD003001403800002010B50B48E3
:102610000B4908604FF4E1304860002108488160B0
:10262000C16001610C21416100218161C161FFF73D
:1026300005FE08B1FEF726F810BD00000038014085
:102640009000002000BFFEE700BFFEE770470000DB
:1026500008B508490968C9084FF47A72B1FBF2F16C
:102660004143009100BF00BF00994A1E009200291B
:10267000F9D108BD1400002008B564230122694681
:102680000248FFF7E9F89DF8000008BD3800002077
:1026900070B50446002201210948FEF707FC03201B
:1026A00000F022FB204600F01FFBFFF7E5FF054688
:1026B000012211460248FEF7F9FB284670BD0000D2
:1026C000000C014070B505460C4600220121094866
:1026D000FEF7ECFB022000F007FB284600F004FBAD
:1026E000204600F001FB012211460248FEF7DEFB06
:1026F00070BD0000000C014010B500220121064809
:10270000FEF7D4FBC02000F0EFFA01221146024888
:10271000FEF7CCFB10BD0000000C0140F8B50446EC
:102720000E4615466068B0F5827F0DD1A068B0F501
:10273000004F03D0A068B0F5806F05D12068006815
:1027400020F04000216808606068B0F5827F11D1F8
:10275000A068B0F5806F0DD13346002201212046DC
:10276000009500F02BF898B1606D40F02000606596
:102770000320F8BD3346002280212046009500F05A
:102780001DF828B1606D40F0200060650320F0E77F
:102790000020EEE7F8B504460D4616462B4600220B
:1027A00080212046009600F009F828B1606D40F0C5
:1027B000200060650320F8BD0020FCE72DE9F84FFC
:1027C00004460D4690461E46DDF82890FEF774FB41
:1027D000A0EB0900371AFEF76FFB82462C48006811
:1027E000C0F3CB307843009045E0701C002842D005
:1027F000FEF762FBA0EB0A00B84200D2A7BB20683C
:10280000406820F0E000216848606068B0F5827F91
:102810000DD1A068B0F5004F03D0A068B0F5806F6F
:1028200005D12068006820F0400021680860A06A97
:10283000B0F5005F0DD100BF2068006820F40050A3
:10284000216808602068006840F400502168086032
:1028500000BF012084F8510000BF002084F8500020
:1028600000BF0320BDE8F88FFFE7009800B90027FC
:102870000098401E0090206880682840A84201D13E
:10288000012000E000204045AFD10020EAE7000031
:1028900014000020704710B5FEF714FB10BD00B502
:1028A0008FB0282105A8FDF756FC14216846FDF7D6
:1028B00052FC0120059000040690002007900120A2
:1028C000099002200C90C1030D914FF4E0110E917C
:1028D00005A8FEF7EDFC08B1FDF7D4FE0F2000902F
:1028E00002200190002002904FF4806003900020AD
:1028F000049002216846FEF7B7FB08B1FDF7C2FE5F
:102900000FB000BD704770B505466C6A0020E085C9
:10291000E0842046FFF71EFB70BD00BF00BF0268C9
:102920000C3252E8002F22F4907102680C3242E817
:102930000013002BF3D100BF00BF00BF02681432A8
:1029400052E8002F22F001010268143242E800131D
:10295000002BF3D100BF016B01290ED100BF00BFD6
:1029600002680C3252E8002F22F0100102680C328B
:1029700042E80013002BF3D100BF202180F8421061
:1029800000210163704710B504462068C06820F03C
:1029900040002168C860202084F841002046FFF7ED
:1029A0002FFD002010BDF8B5044694F842002228FF
:1029B00075D1A068B0F5805F0CD1206950B90025B1
:1029C000A66A20684068C0F308003080A06A801CB6
:1029D000A06215E0A56A0026A068B0F5805F03D06C
:1029E000A06828B9206918B920684068287004E0F8
:1029F0002068406800F07F002870A06A401CA06238
:102A0000E08D401E80B2E085002846D12068C06875
:102A100020F020002168C8602068C06820F4807021
:102A20002168C8602068406920F001002168486181
:102A3000202084F8420000206063206B012826D10A
:102A40000020206300BF00BF21680C3151E8001F47
:102A500021F0100021680C3141E80002002AF3D176
:102A600000BF2068006800F0100010280AD100BFE5
:102A70000020009020680068009020684068009066
:102A800000BF00BFA18D2046FFF7F6F902E0204607
:102A9000FFF75CFC0020F8BD01E00020FBE702200E
:102AA000F9E7000070B504462168096921F4405136
:102AB000E2681143226811612269A16811436269C9
:102AC00041EA02052168C96841F20C629143294339
:102AD0002268D1602168496921F44071A2691143DB
:102AE000226851612D4A2168914202D1FEF798FB7C
:102AF00001E0FEF785FB00EBC00101EB001162680D
:102B00009200B1FBF2F100EBC00202EB001263682D
:102B10009B00B2FBF3F26423B2FBF3F202EBC203BD
:102B200003EB0212A1EB8201322202EB01116422BB
:102B3000B1FBF2F101F0F00100EBC00202EB001278
:102B400063689B00B2FBF3F26423B2FBF3F201EB88
:102B5000021200EBC00101EB001163689B00B1FBA6
:102B6000F3F100EBC00303EB00136668B600B3FBA0
:102B7000F6F36426B3FBF6F303EBC30606EB03138D
:102B8000A1EB8301322303EB01116423B1FBF3F1C9
:102B900001F00F0111442268916070BD00380140BE
:102BA00010B5034699629A85DA8500205864222080
:102BB00083F84200186928B11868C06840F4807032
:102BC0001C68E0601868406940F001001C686061A2
:102BD0001868C06840F020001C68E060002010BD4C
:102BE000014691F84100212828D18868B0F5805F1E
:102BF0000BD1086948B90A6A1088C0F308000B684D
:102C00005860086A801C086205E00B6A581C08625C
:102C100018780B685860C88C401E80B2C88458B9B8
:102C20000868C06820F080000B68D8600868C06839
:102C300040F040000B68D860002070470220FCE79D
:102C40002DE9F04104460D4617469846069E34E0AD
:102C5000701C88B32EB1FEF72FF9A0EB0800B0422C
:102C60002BD900BF00BF21680C3151E8001F21F4AF
:102C7000D07021680C3141E80002002AF3D100BF76
:102C800000BF00BF2168143151E8001F21F001008E
:102C90002168143141E80002002AF3D100BF20204E
:102CA00084F8410084F8420000BF002084F840000E
:102CB00000BF0320BDE8F081FFE7206800682840DE
:102CC000A84201D1012000E00020B842C0D000207D
:102CD000F0E7000010B50248FFF73EF910BD000014
:102CE0009000002000BFFEE701B564230122694681
:102CF0000148FEF770FE08BD380000200FB4054BF8
:102D000010B503A9044A029800F034F810BC5DF82D
:102D100014FB0000CD310008340000200248006898
:102D2000C0F30220704700000CED00E010B5002851
:102D300004DB0A07130E054A135406E00A07140EB3
:102D4000034A00F00F031B1FD45410BD00E400E041
:102D500018ED00E002E008C8121F08C1002AFAD1ED
:102D600070477047002001E001C1121F002AFBD10B
:102D7000704700002DE9FF4F8DB00F460546002635
:102D800006E025280BD0DDE90F1290476D1C761C5C
:102D900028780028F5D111B03046BDE8F08F002426
:102DA000A246A1460122E94900E0044315F8013F8B
:102DB000203B02FA03F00842F7D128782A2810D0E5
:102DC0006FF02F022878A0F13001092914D80AEBFE
:102DD0008A0102EB410144F0020400EB010A6D1C80
:102DE000F0E701CF5FEA000A03D544F40054CAF1CA
:102DF000000A44F002046D1C28782E2817D115F81B
:102E0000010F44F004042A280ED06FF02F02287816
:102E1000A0F1300109290AD809EB890102EB41012F
:102E200000EB01096D1CF2E757F8049B6D1C287834
:102E30006C280FD006DC4C2817D068280DD06A28E3
:102E400014D104E0742810D07A280FD10DE044F496
:102E500000140AE044F4801401E044F4401469785A
:102E6000814202D104F580146D1C6D1C28786E28F7
:102E70001ED00CDC632830D004DC00288BD058280E
:102E800011D19FE0642867D069280CD164E07328D1
:102E90002DD004DC6F2872D0702804D194E07528FE
:102EA0006ED078286DD0DDE90F129047761C4BE18B
:102EB000C4F30250022806D0032809D0042801CF09
:102EC00009D0066040E101CFF117C0E900613BE1A4
:102ED00001CF068038E1067036E117F8040B8DF853
:102EE000000000208DF80100EB46012003E057F8B8
:102EF00004BB4FF0FF3061074FF0000102D40DE03A
:102F000008F10101884649450FDA8045F8DB1BF8D6
:102F100008100029F4D108E008F101018846814237
:102F2000FADB1BF808100029F6D1DDE90F23AAEB24
:102F300008008146214600F031F9304400EB0806D4
:102F400004E0DDE90F121BF8010B9047B8F101080E
:102F5000F7D221464846F2E00A21C4F302524FF06C
:102F6000000B0891022A04D001CFC117032A09D00F
:102F70000AE0FF1D27F00707F7E8020108E02CE050
:102F80001EE01FE000B2C117042A01D140B2C117F0
:102F9000021E71F1000206DA0023D0EB030063EB9E
:102FA00001012D2202E0220504D52B228DF82420D8
:102FB000012203E0E20701D02022F7E7904653E028
:102FC0000A210BE0102109E010214FF0000B44F022
:102FD00004044FF00809089103E008214FF0000BAA
:102FE0000891C4F30252022A04D001CF0021032A1F
:102FF00006D006E0FF1D27F00707F7E8020103E00F
:1030000080B2042A00D1C0B24FF0000822072BD5AD
:103010002A78702A07D0DDF820C08CF0100C5CEA0A
:103020000B0C05D00EE040228DF82420012208E090
:1030300050EA010306D030238DF824308DF8252086
:1030400002229046089B83F0080353EA0B030BD13E
:1030500050EA010201D1620706D530228DF8242002
:103060004FF00108A9F101092A78582A04D038A2A2
:103070000B9208AA0A920BE03AA2F9E75B46089A7B
:10308000FDF774F80B9B9B5C0A9A521E0A92137010
:1030900050EA0102F2D10A98ADEB000000F1200BDA
:1030A000600702D524F4803401E04FF00109D945CE
:1030B00002DDA9EB0B0000E0002000EB0B01414416
:1030C0000890AAEB010AE00306D4DDE90F232146AC
:1030D000504600F063F806444FF0000908E009A9E3
:1030E00011F80900DDE90F12904709F10109761C7A
:1030F000C145F4DBE0030CD5DDE90F232146504642
:1031000000F04CF8064404E0DDE90F12302090474F
:10311000761C0899481E08900029F5DC08E00A98FA
:103120000A990078491C0A91DDE90F129047761C34
:10313000BBF10001ABF1010BF1DC21465046DDE9AA
:103140000F2300F019F806446D1C21E60928010040
:10315000303132333435363738396162636465660D
:1031600000000000303132333435363738394142CF
:1031700043444546000000002DE9F0410446002587
:103180001E461746880404D405E039462020B0477F
:103190006D1C641EF9D52846BDE8F0812DE9F0418B
:1031A000044600251E469046C80301D5302700E09E
:1031B0002027880404D505E041463846B0476D1CF9
:1031C000641EF9D52846BDE8F081000013B50C4611
:1031D0004FF47A73012269460248FFF7B8F8009865
:1031E0001CBD000090000020FDF778FE4FF4FA703F
:1031F000FDF7AAFBFFF753FBFFF780F9FFF76EF926
:10320000FFF7E2F9FFF702FA01E0FDF72BF9FCE71F
:1032100002030405060708090A0B0C0D0E0F101017
:103220000102000000000000000001020304060784
:1032300008090000000001020304000077726974AD
:103240006520666C61736820737563636573732EA4
:10325000204150502073697A653A25642C77726951
:103260007474656E2073697A653A25642C72656D95
:1032700061696E2073697A653A25640A000000006E
:10328000A03200080000002038000000542D000883
:10329000D832000838000020C0050000642D000866
:1032A000000000000000000000000000100000000E
:1032B000010000000024F4000000000000000000F5
:1032C00000000000000000000000000000000000FE
:0832D0000000000000000000F6
:04000005080000ED02
:00000001FF
